:100000000C9454000C9471000C9471000C947100C9
:100010000C944B0E0C94050E0C946C100C94710007
:100020000C9471000C9471000C948F0D0C94CB10F7
:100030000C9471000C9471000C9471000C9471007C
:100040000C948E070C9471000C9471000C94710048
:100050000C94710053115911601166116C117211D9
:10006000A3117B1183118F11A311A311A311A3114C
:10007000A311A311A311A311A311A311A311A311E0
:10008000A311A311A311A311A311A311A311A311D0
:10009000A311A31156115D11631169116F1175112F
:1000A000A3117E1188119D1111241FBECFE5D4E04C
:1000B000DEBFCDBF11E0A0E6B0E0E4E2F8E202C0AE
:1000C00005900D92AC38B107D9F711E0ACE8B1E07A
:1000D00001C01D92A03DB107E1F70E94A4110C944C
:1000E00010140C940000EF92FF920F931F937B016A
:1000F0008C0120E030E040E05FE40E94EF038823C1
:100100008CF0C801B70120E030E040E05FE40E94DD
:10011000EB010E941F049B01AC0120503040404085
:10012000504806C0C801B7010E941F049B01AC01E2
:10013000B901CA011F910F91FF90EF900895A0E0BF
:10014000B0E0E5EAF0E00C94A813DC012B01FA0121
:100150009C91923008F439C1EB018881823008F417
:1001600033C1943069F4843009F02FC111969C9109
:1001700011978981981709F428C1A4E8B0E025C136
:10018000843009F421C18230A9F4923009F01DC1F4
:100190009A01AD0188E0EA010990AE01E9010992F6
:1001A0009E018150C1F7E201898111969C918923BA
:1001B000818308C1923009F407C112962D903C90BA
:1001C0001397EB018A819B811496AD90BD90CD90E1
:1001D000DC901797EC80FD800E811F819101281B18
:1001E000390BB90137FF04C066277727621B730BF1
:1001F000603271050CF061C0121613066CF5370100
:100200004801062E04C096948794779467940A94C4
:10021000D2F721E030E040E050E004C0220F331F6D
:10022000441F551F6A95D2F721503040404050403E
:100230002E213F2140235123211531054105510530
:1002400021F021E030E040E050E079018A01E62829
:10025000F728082919293CC0232BD1F1260E371E77
:1002600035014601062E04C09694879477946794CE
:100270000A94D2F721E030E040E050E004C0220FC1
:10028000331F441F551F6A95D2F72150304040401C
:1002900050402A213B214C215D212115310541058A
:1002A000510521F021E030E040E050E059016A01C1
:1002B000A628B728C828D9280BC0821593052CF08A
:1002C0001C01AA24BB24650103C0EE24FF2487017E
:1002D00011969C91D20111968C91981709F445C002
:1002E000992339F0A80197012A193B094C095D09A6
:1002F00006C0A60195012E193F09400B510B57FD71
:1003000008C0118233822282248335834683578337
:100310001DC081E081833382228288279927DC01F6
:10032000821B930BA40BB50B84839583A683B783A1
:100330000DC0220F331F441F551F2483358346836E
:1003400057838281938101979383828324813581AE
:1003500046815781DA01C9010197A109B1098F5F6F
:100360009F4FAF4FBF4328F30BC09183338222824C
:10037000EA0CFB1C0C1D1D1DE482F582068317830D
:1003800083E08083248135814681578157FF1AC0DD
:10039000C901AA2797FDA095BA2F81709070A0700F
:1003A000B0705695479537952795822B932BA42BA4
:1003B000B52B84839583A683B7838281938101962D
:1003C00093838283DF0101C0D201CD01CDB7DEB7B7
:1003D000E2E10C94C413A0E2B0E0E1EFF1E00C9490
:1003E000B41369837A838B839C832D833E834F83ED
:1003F0005887E9E0EE2EF12CEC0EFD1ECE010196A1
:10040000B7010E9410068E010F5E1F4FCE010596A8
:10041000B8010E9410068A8991E089278A8BC7015A
:10042000B801AE01475E5F4F0E949F000E943B05EE
:10043000A096E6E00C94D013A0E2B0E0E2E2F2E095
:100440000C94B41369837A838B839C832D833E83BE
:100450004F835887F9E0EF2EF12CEC0EFD1ECE01F4
:100460000196B7010E9410068E010F5E1F4FCE014C
:100470000596B8010E941006C701B801AE01475E9B
:100480005F4F0E949F000E943B05A096E6E00C94FF
:10049000D013A0E2B0E0EFE4F2E00C94A81369837B
:1004A0007A838B839C832D833E834F835887CE0131
:1004B0000196BE01675F7F4F0E941006CE01059630
:1004C000BE016F5E7F4F0E9410069985923088F0C2
:1004D00089898230C8F0943019F4823051F404C014
:1004E000843029F4923081F484E890E0C6C09230E0
:1004F00049F420E09A858A89981321E02A87CE0161
:100500000996BBC0823049F420E09A858A89981305
:1005100021E02A8BCE014196B0C02D843E844F84C9
:1005200058886D887E888F88988CEE24FF248701F8
:10053000AA24BB24650140E050E060E070E0E0E008
:10054000F0E0C10181709070892BE9F0E60CF71C96
:10055000081D191D9A01AB012A0D3B1D4C1D5D1D87
:1005600080E090E0A0E0B0E0E614F704080519058B
:1005700020F481E090E0A0E0B0E0BA01A901480FCA
:10058000591F6A1F7B1FAA0CBB1CCC1CDD1C97FECD
:1005900008C081E090E0A0E0B0E0A82AB92ACA2A09
:1005A000DB2A3196E032F10549F0660C771C881C95
:1005B000991C5694479437942794C3CFFA85EA89B7
:1005C0002B893C898B859C85280F391F2E5F3F4FD7
:1005D00017C0CA0181709070892B61F0169507953C
:1005E000F794E79480E090E0A0E0B0E8E82AF92AE8
:1005F0000A2B1B2B76956795579547952F5F3F4F95
:1006000077FDE7CF0CC0440F551F661F771F17FDFE
:100610004160EE0CFF1C001F111F21503040403084
:1006200090E0590790E0690790E4790760F32B8F19
:100630003C8FDB01CA018F779070A070B07080345E
:100640009105A105B10561F447FD0AC0E114F1046B
:100650000105110529F0405C5F4F6F4F7F4F4078D7
:100660001A8EFE1711F081E08A8F4D8F5E8F6F8F8B
:1006700078A383E0898FCE0149960E943B05A0961E
:10068000E2E10C94C413A8E1B0E0E9E4F3E00C94D7
:10069000B01369837A838B839C832D833E834F833E
:1006A0005887B9E0EB2EF12CEC0EFD1ECE01019621
:1006B000B7010E9410068E010F5E1F4FCE010596F6
:1006C000B8010E9410062985223008F47EC03989BD
:1006D000323010F4B8017CC08A859A8989278A87CC
:1006E000243011F0223031F4231709F06EC064E891
:1006F00070E06EC0343039F41D861E861F86188A5D
:100700001C861B8604C0323021F484E08987B7013F
:100710005FC02B853C858B899C89281B390B3C87C6
:100720002B87ED84FE840F851889AD88BE88CF881D
:10073000D88CEA14FB040C051D0540F4EE0CFF1CDC
:10074000001F111F215030403C872B8720E030E0F4
:1007500040E050E080E090E0A0E0B0E460E070E0D5
:10076000EA14FB040C051D0540F0282B392B4A2BFD
:100770005B2BEA18FB080C091D09B695A795979500
:100780008795EE0CFF1C001F111F6F5F7F4F6F31AD
:10079000710531F7DA01C9018F779070A070B070E0
:1007A00080349105A105B10561F427FD0AC0E1146B
:1007B000F1040105110529F0205C3F4F4F4F5F4FB9
:1007C00020782D873E874F87588BBE01675F7F4F0C
:1007D000CB010E943B056896EAE00C94CC13A8E19B
:1007E000B0E0E5EFF3E00C94B41369837A838B8374
:1007F0009C832D833E834F83588789E0E82EF12C1C
:10080000EC0EFD1ECE010196B7010E9410068E016E
:100810000F5E1F4FCE010596B8010E941006898514
:10082000823040F08989823028F0C701B8010E94E7
:10083000880601C08FEF6896E6E00C94D013ACE018
:10084000B0E0E5E2F4E00C94B81369837A838B831B
:100850009C83CE010196BE016B5F7F4F0E94100604
:100860008D81823061F1823050F1843021F48E81AB
:10087000882351F12EC02F81388537FD20C06E812D
:100880002F3131051CF06623F9F023C08EE190E092
:10089000821B930B29853A854B855C8504C0569550
:1008A0004795379527958A95D2F76623B1F05095ED
:1008B0004095309521953F4F4F4F5F4F0EC020E040
:1008C00030E040E050E009C02FEF3FEF4FEF5FE72F
:1008D00004C020E030E040E050E8B901CA012C96A5
:1008E000E2E00C94D413A8E0B0E0E9E7F4E00C9463
:1008F000B0137B018C01611571058105910519F417
:1009000082E0898360C083E089838EE1C82ED12C88
:10091000DC82CB82ED82FE820F831887C801B7018B
:100920000E94EC04FC013197F7FF3BC022273327DC
:100930002E1B3F0B57016801022E04C0D694C794AA
:10094000B794A7940A94D2F740E050E060E070E0DA
:1009500081E090E0A0E0B0E004C0880F991FAA1FDA
:10096000BB1F2A95D2F70197A109B1098E219F21BA
:10097000A023B1230097A105B10521F041E050E08B
:1009800060E070E04A295B296C297D294D835E83F4
:100990006F8378878EE190E08E1B9F0B9C838B8307
:1009A00012C0309781F00E2E04C0EE0CFF1C001F09
:1009B000111F0A94D2F7ED82FE820F831887CE1A98
:1009C000DF0ADC82CB821A82CE0101960E943B05AF
:1009D0002896EAE00C94CC13EF92FF920F931F93AA
:1009E0007B018C0180E0E81680E0F80681E00807D2
:1009F00080E0180788F48FEFE816F104010511056F
:100A000031F028F088E090E0A0E0B0E017C080E08E
:100A100090E0A0E0B0E012C080E0E81680E0F806C8
:100A200080E0080781E0180728F088E190E0A0E066
:100A3000B0E004C080E190E0A0E0B0E020E230E06F
:100A400040E050E0281B390B4A0B5B0B04C01695A5
:100A50000795F794E7948A95D2F7F701E457FF4F8B
:100A60008081281B310941095109C9011F910F914A
:100A7000FF90EF900895DF92EF92FF920F931F93F4
:100A8000FC01E480F58006811781D180808182306D
:100A900048F480E090E0A0E1B0E0E82AF92A0A2BCF
:100AA0001B2BA5C0843009F49FC0823021F4EE24B2
:100AB000FF24870105C0E114F1040105110519F4B3
:100AC000E0E0F0E096C0628173819FEF62387907C1
:100AD0000CF05BC022E83FEF261B370B2A313105B3
:100AE0002CF020E030E040E050E02AC0B801A7013F
:100AF000022E04C076956795579547950A94D2F7CC
:100B000081E090E0A0E0B0E004C0880F991FAA1F28
:100B1000BB1F2A95D2F70197A109B1098E219F2108
:100B2000A023B1230097A105B10521F081E090E059
:100B3000A0E0B0E09A01AB01282B392B4A2B5B2BAC
:100B4000DA01C9018F779070A070B0708034910580
:100B5000A105B10539F427FF09C0205C3F4F4F4F75
:100B60005F4F04C0215C3F4F4F4F5F4FE0E0F0E02C
:100B70002030A0E03A07A0E04A07A0E45A0710F0AE
:100B8000E1E0F0E079018A0127C06038710564F581
:100B9000FB01E158FF4FD801C7018F779070A0701B
:100BA000B07080349105A105B10539F4E7FE0DC0A0
:100BB00080E490E0A0E0B0E004C08FE390E0A0E02B
:100BC000B0E0E80EF91E0A1F1B1F17FF05C016959F
:100BD0000795F794E794319687E016950795F79473
:100BE000E7948A95D1F705C0EE24FF248701EFEF43
:100BF000F0E06E2F679566276795902F9F77D794C3
:100C0000DD24D7948E2F8695492F462B582F5D29AA
:100C1000B701CA011F910F91FF90EF90DF900895E7
:100C2000FC01DB01408151812281622F6F7770E0EE
:100C3000221F2227221F9381892F880F822B282F82
:100C400030E0991F9927991F11969C9311972115B0
:100C50003105A9F5411551056105710511F482E0D1
:100C600037C082E89FEF13969C938E9312979A0158
:100C7000AB0167E0220F331F441F551F6A95D1F760
:100C800083E08C930DC0220F331F441F551F129613
:100C90008D919C911397019713969C938E93129725
:100CA000203080E0380780E0480780E4580758F398
:100CB00014962D933D934D935C93179708952F3F72
:100CC000310579F4411551056105710519F484E088
:100CD0008C93089564FF03C081E08C9312C01C9232
:100CE00010C02F57304013963C932E93129783E0F9
:100CF0008C9387E0440F551F661F771F8A95D1F7A5
:100D0000706414964D935D936D937C93179708953B
:100D10001F93DC01FB019C91923008F447C0808155
:100D2000823008F443C0943051F411961C91843001
:100D300099F58181682F70E0611B71093FC0843093
:100D400021F0923031F48230B9F18181882389F128
:100D50002DC011961C9111978230F1F081811817E6
:100D6000D9F412962D913C91139782819381821729
:100D7000930794F028173907BCF014968D919D9134
:100D80000D90BC91A02D2481358146815781281773
:100D900039074A075B0718F4112341F00AC082178C
:100DA0009307A407B50740F4112319F061E070E040
:100DB00005C06FEF7FEF02C060E070E0CB011F91D4
:100DC00008953E9A3F983D9887B1887F87B987B14B
:100DD000876087B9379A089597B1907E97B997B190
:100DE000982B97B9369A349BFECF349A24B135B1FB
:100DF000C9010895982FFB0180918E01882351F538
:100E000081E080938E0187B1807E87B987B1892B7D
:100E100087B9369A80E090E0A0E0B0E003C0019688
:100E2000A11DB11D349909C0803523EC920720E043
:100E3000A20720E0B20799F70DC08055934CA0405F
:100E4000B04041F0349A84B195B1808310928E0104
:100E500080E0089581E00895982F80918E01882385
:100E600011F081E0089561157105D1F0411551052A
:100E7000B9F081E080938E011092980170938D01FA
:100E800060938C015093900140938F0187B1807ED5
:100E900087B987B1892B87B9369A339A80E008954C
:100EA00082E00895DC01009711F482E008958091BA
:100EB0008E01882329F481E080938E0180E00895DB
:100EC00081E080939801ED91FC911197F093960148
:100ED000E093950112968D919C91139790939201B6
:100EE0008093910114968C911497809393011092A2
:100EF000940115968D919C911697909390018093F3
:100F00008F011092970187B1807E87B987B1908158
:100F1000892B87B9369A339A81E008951F920F92F0
:100F20000FB60F9211242F933F934F935F936F93BC
:100F30007F938F939F93AF93BF93EF93FF93809192
:100F40009801882341F484B195B1E0918C01F0912E
:100F50008D0180831DC0813091F52091970144B1AE
:100F600055B1822F90E0880F991FE0919101F09187
:100F70009201E80FF91F518340832F5F209397015F
:100F800030E080919301909194018217930749F486
:100F900010928E01E0918F01F091900109953398A4
:100FA0000EC087B1807E87B997B1E0919501F0912D
:100FB0009601E20FF31F8081982B97B9369AFF9123
:100FC000EF91BF91AF919F918F917F916F915F91C1
:100FD0004F913F912F910F900FBE0F901F9018953A
:100FE000FF920F931F93F82E83E062E041E00E948E
:100FF000320B83E063E040E00E94320B00ED17E02B
:10100000C8010197F1F783E067E041E00E94320BED
:10101000C8010197F1F74F2D4295417081E060E0E2
:101020000E94320B4F2D42954695417081E061E060
:101030000E94320B4F2D429546954695417081E0B6
:1010400062E00E94320B4F2D441F4427441F81E071
:1010500063E00E94320BC8010197F1F783E067E07B
:1010600040E00E94320BC8010197F1F783E067E08E
:1010700041E00E94320BC8010197F1F74F2D4170FA
:1010800081E060E00E94320B4F2D4695417081E077
:1010900061E00E94320BF694F6944F2D417081E08E
:1010A00062E00E94320BF69481E0F82263E04F2D5B
:1010B0000E94320BC8010197F1F783E067E040E03E
:1010C0000E94320BC8010197F1F71F910F91FF9019
:1010D00008959F92AF92BF92CF92DF92EF92FF92CC
:1010E0000F931F93DF93CF93CDB7DEB72A970FB639
:1010F000F894DEBF0FBECDBF7B018C015E0108946A
:10110000A11CB11C65019C2C9A18C801B7012AE0EA
:1011100030E040E050E00E946B13605DF6016193A7
:101120006F01C801B7012AE030E040E050E00E94C2
:101130006B13C901DA017C018D01E114F104010591
:10114000110509F7892D992787FD90958E010F5F6D
:101150001F4F080F191FF92CF80180810E94F0071A
:10116000FA9401501040FFEFFF16B1F72A960FB620
:10117000F894DEBF0FBECDBFCF91DF911F910F91CD
:10118000FF90EF90DF90CF90BF90AF909F90089529
:101190001F93CF93DF93EC0110E003C00E94F00790
:1011A0001F5FFE01E10FF11D80818823B9F7DF91F8
:1011B000CF911F9108950F931F93DF93CF93CDB7D6
:1011C000DEB760970FB6F894DEBF0FBECDBF90E0DC
:1011D0008E010F5F1F4FB8014AE050E00E94DF13FD
:1011E000C8010E94C80860960FB6F894DEBF0FBE13
:1011F000CDBFCF91DF911F910F910895FF920F9373
:101200001F93F82E83E062E040E00E94320B83E0FF
:1012100063E040E00E94320B00ED17E0C801019747
:10122000F1F783E067E041E00E94320BC8010197CB
:10123000F1F74F2D4295417081E060E00E94320B42
:101240004F2D42954695417081E061E00E94320B3E
:101250004F2D429546954695417081E062E00E948F
:10126000320B4F2D441F4427441F81E063E00E944E
:10127000320BC8010197F1F783E067E040E00E947C
:10128000320BC8010197F1F783E067E041E00E946B
:10129000320BC8010197F1F74F2D417081E060E0FA
:1012A0000E94320B4F2D4695417081E061E00E9413
:1012B000320BF694F6944F2D417081E062E00E946B
:1012C000320BF69481E0F82263E04F2D0E94320B3E
:1012D000C8010197F1F783E067E040E00E94320B1C
:1012E000C8010197F1F71F910F91FF90089581E0D8
:1012F0000E94FE080895813051F0813028F082303C
:1013000049F0833079F40AC0862F805804C0862FB4
:10131000805401C0862F0E94FE080895862F805CAD
:101320000E94FE080895DF92EF92FF920F931F93A1
:10133000CF93DF938C01F62EE42ED22E81E08093A2
:101340009901862F880F880F880F805C0E94FE0805
:10135000C0E0D0E0F801EC0FFD1F80810E94F00793
:101360002196C830D105B1F78E2D6D2D0E947B09D5
:101370008F2D0E94F00710929901DF91CF911F915C
:101380000F91FF90EF90DF90089583E062E041E0DD
:101390000E94FC0983E063E041E00E94FC0983E0D5
:1013A00067E041E00E94FC0980E49CE90197F1F7C5
:1013B00081E060E041E00E94FC0981E061E041E001
:1013C0000E94FC0981E062E041E00E94FC0981E0AA
:1013D00063E041E00E94FC0983E30E94FE0882E38F
:1013E0000E94FE0888E20E94FE088CE00E94FE082F
:1013F00081E00E94FE080895683008F0C2C04423CE
:10140000D1F58130A1F0813030F08230E1F08330CD
:1014100009F0B7C024C02AB381E090E002C0880F71
:10142000991F6A95E2F7809582238ABBA8C027B3EB
:1014300081E090E002C0880F991F6A95E2F78095DD
:10144000822387BB9CC024B381E090E002C0880F58
:10145000991F6A95E2F78095822384BB90C021B3DF
:1014600081E090E002C0880F991F6A95E2F78095AD
:10147000822381BB84C04130B1F5813099F0813045
:1014800030F08230D1F0833009F07BC021C02AB324
:1014900081E090E002C0880F991F6A95E2F7282B3F
:1014A0002ABB6DC027B381E090E002C0880F991F6E
:1014B0006A95E2F7282B27BB62C024B381E090E055
:1014C00002C0880F991F6A95E2F7282B24BB57C0EA
:1014D00021B381E090E002C0880F991F6A95E2F77E
:1014E000282B21BB4CC0423009F04BC08130C1F0E9
:1014F000813030F0823021F1833009F042C030C0B9
:101500003AB381E090E002C0880F991F6A95E2F734
:10151000282F209523232ABB2BB3822B8BBB2FC0D4
:1015200037B381E090E002C0880F991F6A95E2F717
:10153000282F2095232327BB28B3822B88BB1FC0CD
:1015400034B381E090E002C0880F991F6A95E2F7FA
:10155000282F2095232324BB25B3822B85BB0FC0C6
:1015600031B381E090E002C0880F991F6A95E2F7DD
:10157000282F2095232321BB22B3822B82BB80E01E
:10158000089581E0089580E060E040E00E94FC0959
:1015900080E061E040E00E94FC0980E062E040E021
:1015A0000E94FC0980E063E040E00E94FC0980E0CA
:1015B00064E040E00E94FC0980E065E040E00E94B9
:1015C000FC0980E066E040E00E94FC0981E060E008
:1015D00041E00E94FC0981E061E041E00E94FC09D9
:1015E00082E060E041E00E94FC0982E061E041E0CD
:1015F0000E94FC0982E062E041E00E94FC0982E076
:1016000063E041E00E94FC0982E064E041E00E9466
:10161000FC0982E065E041E00E94FC0982E066E0AE
:1016200041E00E94FC0982E067E041E00E94FC0981
:1016300083E066E041E00E94FC090895813051F0AA
:10164000813030F0823041F0833049F081E00895FC
:101650006ABB03C067BB01C064BB80E0089561BB87
:1016600080E00895683008F074C04423D1F58130DB
:10167000A1F0813030F08230E1F0833009F069C0B0
:1016800024C02BB381E090E002C0880F991F6A95B7
:10169000E2F7809582238BBB5AC028B381E090E0AB
:1016A00002C0880F991F6A95E2F78095822388BB54
:1016B0004EC025B381E090E002C0880F991F6A9563
:1016C000E2F78095822385BB42C022B381E090E09F
:1016D00002C0880F991F6A95E2F78095822382BB2A
:1016E00036C04130B1F5813091F0813028F0823040
:1016F000C9F0833071F521C02BB381E090E002C0C6
:10170000880F991F6A95E2F7282B2BBB20C028B3BE
:1017100081E090E002C0880F991F6A95E2F7282BBC
:1017200028BB15C025B381E090E002C0880F991F47
:101730006A95E2F7282B25BB0AC022B381E090E02E
:1017400002C0880F991F6A95E2F7282B22BB80E020
:10175000089581E00895813051F0813030F0823079
:1017600041F0833049F081E008956BBB03C068BB52
:1017700001C065BB80E0089562BB80E008958130C0
:1017800099F0813030F08230D1F0833021F181E066
:1017900008952BB381E090E002C0880F991F6A95ED
:1017A000E2F728272BBB15C028B381E090E002C0E8
:1017B000880F991F6A95E2F7282728BB0AC025B32E
:1017C00081E090E002C0880F991F6A95E2F7282710
:1017D00025BB80E0089522B381E090E002C0880F2D
:1017E000991F6A95E2F7282722BB80E00895FA0145
:1017F00041155105E1F06830D0F4813049F0813075
:1018000028F0823039F0833091F406C089B305C0E6
:1018100086B303C083B301C080B390E002C0959546
:1018200087956A95E2F78170808380E0089581E072
:101830000895FB016115710599F0813049F08130FF
:1018400028F0823039F0833059F406C089B305C0DE
:1018500086B303C083B301C080B3808380E0089562
:1018600081E008958FB780688FBF08958FB78F7715
:101870008FBF08952F923F924F925F926F927F9207
:101880008F929F92AF92BF92CF92DF92EF92FF9290
:101890000F931F93DF93CF93CDB7DEB71B012C01BE
:1018A00039014A01A60195016D897E898F89988D3C
:1018B00062197309840995092E193F09400B510BD0
:1018C0000E9425136218730884089508A4019301E7
:1018D0000E948D1359016A01AE0CBF1CC01ED11E9F
:1018E000B501C601CF91DF911F910F91FF90EF904D
:1018F000DF90CF90BF90AF909F908F907F906F9030
:101900005F904F903F902F9008958FB9779BFECFB7
:101910000895779BFECF8FB108958FB9779BFECF47
:101920008FB108956F9A08956F98089590939B01D1
:1019300080939A01089581E065E040E00E94FC09EF
:1019400081E066E041E00E94FC0981E067E040E060
:101950000E94FC0981E064E040E00E94FC096E9A6C
:10196000089581E065E041E00E94FC0981E066E0C5
:1019700040E00E94FC0981E067E041E00E94FC0930
:1019800081E064E041E00E94FC096C9A689A6998E1
:1019900070986E9A0895AF92BF92CF92DF92EF92B5
:1019A000FF920F931F9300D000D0EDB7FEB7618375
:1019B00072838383948360E070E080E090E024EBA6
:1019C00030E040E050E0FEEEEF2EF2E0FF2E012D81
:1019D000112DE4ECAE2EE9E0BE2EC12CD12C0E94DC
:1019E0003A0CDC01CB010F900F900F900F900E94EA
:1019F0003E101F910F91FF90EF90DF90CF90BF901E
:101A0000AF900895AF92BF92CF92DF92EF92FF9284
:101A10000F931F9300D000D0EDB7FEB761837283A0
:101A20008383948360E070E080E090E024EB30E01A
:101A300040E050E0BEEEEB2EB2E0FB2E012D112D6A
:101A4000A4ECAA2EA9E0BA2EC12CD12C0E943A0CEB
:101A5000DC01CB010F900F900F900F900E943B1074
:101A60001F910F91FF90EF90DF90CF90BF90AF90BC
:101A7000089583E064E041E00E94FC098EE062E0AA
:101A800042E00E948E0E8FE19EE40E944110089574
:101A900083E065E041E00E94FC0983E064E041E00E
:101AA0000E94FC098EE062E042E00E948E0E8FE10F
:101AB0009EE40E944110089583B7806483BF83B77A
:101AC000877F83BF83B78F7E83BF83B7806283BFE7
:101AD00083B7816083BF83B78D7F83BF83B7846003
:101AE00083BF80E090E0A0E8B4E48093B5019093D8
:101AF000B601A093B701B093B8010895089520E00E
:101B000030E84FEF53E40E94490220E030E048EC17
:101B100052E40E9443030E9473006CBF08951F9219
:101B20000F920FB60F9211242F933F934F935F9311
:101B30006F937F938F939F93AF93BF93EF93FF9395
:101B40008091A0019091A10101969093A1018093B1
:101B5000A001A0E0B0E02091C1013091C20140910C
:101B6000C3015091C401281739074A075B0749F49C
:101B70001092A1011092A001E091A201F091A301A5
:101B80000995FF91EF91BF91AF919F918F917F91B7
:101B90006F915F914F913F912F910F900FBE0F90DA
:101BA0001F90189585B5806485BD85B5877F85BDF7
:101BB00085B58F7E85BD85B5806285BD85B5816023
:101BC00085BD85B58D7F85BD85B5846085BD80E08B
:101BD00090E0A0E8B4E48093BD019093BE01A0938F
:101BE000BF01B093C0010895089520E030E84FEFA1
:101BF00053E40E94490220E030E048EC52E40E94A5
:101C000043030E94730063BD08951F920F920FB6A5
:101C10000F9211242F933F934F935F936F937F9372
:101C20008F939F93AF93BF93EF93FF9380919E0108
:101C300090919F01019690939F0180939E01A0E057
:101C4000B0E02091B9013091BA014091BB015091AF
:101C5000BC01281739074A075B0761F48091C90165
:101C600084BDE091A401F091A501099510929F0116
:101C700010929E01FF91EF91BF91AF919F918F9133
:101C80007F916F915F914F913F912F910F900FBE78
:101C90000F901F9018951F920F920FB60F9211245C
:101CA0002F933F934F935F936F937F938F939F9364
:101CB000AF93BF93EF93FF9380919C0190919D010F
:101CC000019690939D0180939C01A0E0B0E020914B
:101CD000C5013091C6014091C7015091C801281734
:101CE00039074A075B0749F4E091A401F091A50187
:101CF000099510929D0110929C01FF91EF91BF9167
:101D0000AF919F918F917F916F915F914F913F9193
:101D10002F910F900FBE0F901F901895982F87301E
:101D200009F48AC0883088F4833009F44DC08430C7
:101D300028F48130A9F18230C8F51DC0853009F43E
:101D400065C0863008F068C048C08B3009F48FC089
:101D50008C3038F4893009F481C08A3008F084C0AE
:101D60007AC08E3009F49EC08F3009F49EC08C304A
:101D700009F0A7C085C08FB58E7F8FBD8FB58D7FD1
:101D80008FBD8EB5877F8EBD8EB58F7E8EBD89B798
:101D9000846089BF89B7877F89BF89B78F7E31C04B
:101DA0008FB581608FBD8FB58D7F13C08FB58E7F4E
:101DB0008FBD8FB582608FBD8EB5877F8EBD8EB58E
:101DC0008F7E8EBD82E035C08FB581608FBD8FB5AF
:101DD00082608FBD8EB5877F37C08FB58E7F8FBDF8
:101DE0008FB58D7F8FBD8EB588608EBD8EB58F7E91
:101DF0008EBD89B78B7F89BF89B7877F89BF89B738
:101E0000806189BF89B78F7D89BF5BC08FB58160D5
:101E10008FBD8FB58D7F15C08FB58E7F8FBD8FB570
:101E200082608FBD8EB588608EBD8EB58F7E8EBD73
:101E300086E08093AC0145C08FB581608FBD8FB5C2
:101E400082608FBD8EB588608EBD8EB58F7E8EBD53
:101E50009093AC0136C08FB58E7F02C08FB5816084
:101E60008FBD8FB58D7F08C08FB58E7F02C08FB5B7
:101E700081608FBD8FB582608FBD8EB5877F1DC09D
:101E80008FB58E7F8FBD8FB582608FBD8EB5886018
:101E90008EBD8EB58F7E8EBD89B78B7F89BF89B78A
:101EA0008860ACCF8FB58E7F02C08FB581608FBD4B
:101EB0008FB582608FBD8EB588608EBD8EB5806116
:101EC0008EBD613051F0613028F0623061F06330D6
:101ED00099F40CC08FB58F7B02C08FB580648FBD25
:101EE0008FB58F7708C08FB58F7B02C08FB58064A8
:101EF0008FBD8FB580688FBD413051F0413028F0E3
:101F0000423061F0433099F40CC08FB58F7E02C02F
:101F10008FB580618FBD8FB58F7D08C08FB58F7EE7
:101F200002C08FB580618FBD8FB580628FBD8EB5C9
:101F30008E7F8EBD8EB582608EBD8EB58B7F8EBD41
:101F40000895982F8091AC01833029F1843030F4CA
:101F5000813059F0823009F040C00CC0863011F158
:101F6000873049F18530C9F51BC0292F30E08EEF4D
:101F700091E004C0292F30E08EEF93E0AC01249F64
:101F8000C001259F900D349F900D112464E670E0F0
:101F90000E9444130DC0292F30E08EEF97E0EECF62
:101FA00080E002C080E0990F64E670E00E94581360
:101FB0007BBD6ABD0895292F30E08FEF93E0AC011F
:101FC000249FC001259F900D349F900D112464E63D
:101FD00070E00E9444137BBD6ABD0895982F8091E4
:101FE000AC01833029F1843030F4813059F08230F3
:101FF00009F040C00CC0863011F1873049F18530BE
:10200000C9F51BC0292F30E08EEF91E004C0292FC5
:1020100030E08EEF93E0AC01249FC001259F900D2E
:10202000349F900D112464E670E00E9444130DC0AB
:10203000292F30E08EEF97E0EECF80E002C080E005
:10204000990F64E670E00E94581379BD68BD089549
:10205000292F30E08FEF93E0AC01249FC001259F32
:10206000900D349F900D112464E670E00E9444139B
:1020700079BD68BD08959BBD8ABD089599BD88BD91
:10208000089597BD86BD08958EB580648EBD89B7CD
:10209000806289BF8EB58E7F8EBD8EB582608EBD0B
:1020A0008EB58B7F8EBD0895813021F48EB580640E
:1020B0008EBD0895882319F48EB58F7B8EBD08954B
:1020C00026B537B5C90108959093A7018093A6015D
:1020D00008951DBC1CBC08951F920F920FB60F925D
:1020E00011242F933F934F935F936F937F938F931D
:1020F0009F93AF93BF93EF93FF93E091A601F0916D
:10210000A701309709F00995FF91EF91BF91AF9129
:102110009F918F917F916F915F914F913F912F91FF
:102120000F900FBE0F901F90189583E389B910BCD4
:10213000599858985798579856985598539A549A2A
:10214000529886E880BD08955D9BFECF8CB90895B6
:1021500020E040ED57E007C05D9BFECFECB9FA01EF
:102160003197F1F72F5FFC01E20FF11DE081EE23C3
:1021700099F708955F9BFECF8CB10895579A089503
:1021800057980895569A0895569808959093AB01DC
:102190008093AA0108951F920F920FB60F921124F7
:1021A0002F933F934F935F936F937F938F939F935F
:1021B000AF93BF93EF93FF93E091AA01F091AB012E
:1021C0000995FF91EF91BF91AF919F918F917F9171
:1021D0006F915F914F913F912F910F900FBE0F9094
:1021E0001F9018959093A9018093A80108959C01D0
:1021F000009739F45D9BFECF80E38CB9E1E0F0E01D
:102200002CC0E1E0F0E0CF0153E0880F991F5A9510
:10221000E1F7EE0FFF1FE80FF91FC9016AE070E058
:102220000E944413E80FF91FC9016AE070E00E94A0
:1022300044139B016115710531F70FC05D9BFECF03
:10224000CF016AE070E00E944413805D8CB9CF0139
:102250006AE070E00E944413FB01E130F10571F780
:1022600008955F9BFECF8CB1089501C0019627E0D1
:10227000803D920710F45F9BF9CF8CB108950E94C6
:10228000BA108093CD0190E0FC01E154F040EA32B5
:10229000F10508F058C0E65DFF4FEE0FFF1F0590F7
:1022A000F491E02D099482E060E005C082E060E0F6
:1022B0001EC082E061E041E01BC082E061E017C027
:1022C00082E062E0F8CF82E062E011C082E063E089
:1022D000F2CF82E063E00BC082E064E0ECCF82E00A
:1022E00064E005C082E065E0E6CF82E065E040E0C2
:1022F0000E94320B089588E490E002C088E690E0E6
:102300000E94850C089560E070E080E090E004C0D9
:102310006AE570E080E090E00E94020D08958091EF
:10232000CE019091CF018536910568F460E070E0B0
:1023300080E090E00E94CB0C08956AE570E080E0B8
:1023400090E00E94CB0C08956F927F928F929F92A3
:10235000AF92BF92CF92DF92EF92FF920F931F93B3
:10236000DF93CF9300D00F92CDB7DEB70E94C30AA0
:102370000E94E1060E94B10C0E9495100E94BE10BE
:102380008FE391E10E94C6100E94C5090E94320CA1
:102390000E94480D6AE570E080E090E00E94020D26
:1023A0006AE570E080E090E00E94CB0C3E0108946A
:1023B000611C711C78ECC72ED12C62E0862E912C0A
:1023C0008C0E9D1E53E0A52EB12CAC0EBD1E04E656
:1023D00080E060E0A3010E94F70B8981813009F55C
:1023E00083E066E041E00E94320B8AE590E00E94C3
:1023F000850C8CED95E0F6013197F1F70197D9F74F
:1024000083E066E040E00E94320B8AE790E00E94A1
:10241000850C8CED95E0F6013197F1F70197D9F72E
:1024200005C083E066E040E00E94320B80E061E09E
:10243000A4010E94F70B8A81882309F583E066E0F6
:1024400041E00E94320B8AE590E00E94850C84EC0A
:1024500099E0F6013197F1F70197D9F783E066E04B
:1024600040E00E94320B8AE790E00E94850C84ECE9
:1024700099E0F6013197F1F70197D9F705C083E0AC
:1024800066E040E00E94320B82E00E94EC069C0174
:10249000220F331F220F331F280F391F3093CF0114
:1024A0002093CE012E55314030F064EB70E080E097
:1024B00090E00E94CB0C80E063E0A5010E94F70B46
:1024C0008B81813029F482E064E041E00E94320B8C
:1024D00084E00E94EC06855F914020F482E066E093
:1024E00041E003C082E066E040E00E94320B85E0FC
:1024F0000E94EC06A0E0B0E0BC01CD010E94730494
:1025000026EF38E24CE950E40E94490220E030E036
:1025100040E251E40E9443030E9473007B0183E286
:10252000E816F10488F083E066E040E00E94320B98
:1025300082E067E041E00E94320B80E06DE00E94A3
:102540007B0980E690E010C083E066E040E00E94F6
:10255000320B82E067E040E00E94320B80E06DE0E9
:102560000E947B0984E690E00E94C80886E00E94F1
:10257000EC06A0E0B0E0BC01CD010E9473042AE0AB
:1025800037ED43E251E40E9443030E947300102F91
:10259000161B1B30A8F481E06EE00E947B09612FBE
:1025A00070E080E090E00E94690881E06FE00E94A6
:1025B0007B0988E690E00E94C80889E790E019C08E
:1025C000143659F481E06EE00E947B0963E670E006
:1025D00080E090E00E9469080EC081E06EE00E94F9
:1025E0007B09612F70E080E090E00E94690889E536
:1025F00090E00E94850C80E060E00E947B098AE602
:1026000090E00E94C80880E065E00E947B09B70165
:1026100080E090E00E94690880E067E00E947B090A
:1026200088E690E00E94C80880E069E00E947B098B
:1026300080E790E00E94C80881E060E00E947B098A
:1026400085E790E00E94C808C3CE629FD001739FC7
:10265000F001829FE00DF11D649FE00DF11D929F3E
:10266000F00D839FF00D749FF00D659FF00D99277D
:10267000729FB00DE11DF91F639FB00DE11DF91FA1
:10268000BD01CF0111240895AA1BBB1B51E107C056
:10269000AA1FBB1FA617B70710F0A61BB70B881FF2
:1026A000991F5A95A9F780959095BC01CD01089581
:1026B00097FB092E07260AD077FD04D0E5DF06D068
:1026C00000201AF4709561957F4F0895F6F7909564
:1026D00081959F4F0895A1E21A2EAA1BBB1BFD01F5
:1026E0000DC0AA1FBB1FEE1FFF1FA217B307E407F1
:1026F000F50720F0A21BB30BE40BF50B661F771F49
:10270000881F991F1A9469F7609570958095909528
:102710009B01AC01BD01CF01089597FB092E052651
:102720000ED057FD04D0D7DF0AD0001C38F45095E6
:102730004095309521953F4F4F4F5F4F0895F6F7E5
:1027400090958095709561957F4F8F4F9F4F08951D
:102750002F923F924F925F926F927F928F929F92B1
:10276000AF92BF92CF92DF92EF92FF920F931F939F
:10277000CF93DF93CDB7DEB7CA1BDB0B0FB6F89450
:10278000DEBF0FBECDBF09942A88398848885F8490
:102790006E847D848C849B84AA84B984C884DF8001
:1027A000EE80FD800C811B81AA81B981CE0FD11DE5
:1027B0000FB6F894DEBF0FBECDBFED010895FB014B
:1027C0009F01E8944230C4F04532B4F44A3029F411
:1027D00097FB1EF4909581959F4F642F77270E9459
:1027E0004413805D8A330CF0895D8193CB0100979F
:1027F000A1F716F45DE251931082C9010C94001404
:10280000DC01FC01672F71917723E1F7329704C057
:102810007C916D9370836291AE17BF07C8F30895E2
:04282000F894FFCF5A
:102824004F4E20004F464600200054656D703A001C
:1028340046616E3A00536F696C204D6F697374750D
:1028440072653A000000000000000000000102026E
:102854000303030304040404040404040505050534
:102864000505050505050505050505050606060610
:1028740006060606060606060606060606060606F4
:1028840006060606060606060606060607070707E0
:1028940007070707070707070707070707070707C4
:1028A40007070707070707070707070707070707B4
:1028B40007070707070707070707070707070707A4
:1028C4000707070707070707070707070808080890
:1028D4000808080808080808080808080808080874
:1028E4000808080808080808080808080808080864
:1028F4000808080808080808080808080808080854
:102904000808080808080808080808080808080843
:102914000808080808080808080808080808080833
:102924000808080808080808080808080808080823
:102934000808080808080808080808080808080813
:0C29440008080808080808080808080827
:00000001FF
