:100000000C942A000C9447000C9447000C94470071
:100010000C94F71B0C949E1B0C9404220C94470028
:100020000C9447000C9447000C9456190C9447000C
:100030000C9447000C9447000C9447000C94470024
:100040000C9447000C9447000C9447000C94470014
:100050000C94470011241FBECFE5D4E0DEBFCDBF16
:1000600011E0A0E6B0E0E6EBF4E602C005900D92E8
:10007000A633B107D9F711E0A6E3B1E001C01D92A4
:10008000A536B107E1F70E9437220C9459320C943F
:100090000000EF92FF920F931F937B018C0120E0F1
:1000A00030E040E05FE40E94F50388238CF0C80153
:1000B000B70120E030E040E05FE40E94C1010E940F
:1000C00055049B01AC01205030404040504806C0D0
:1000D000C801B7010E9455049B01AC01B901CA01D6
:1000E0001F910F91FF90EF900895A0E0B0E0EBE733
:1000F000F0E00C94F131DC012B01FA019C9192307B
:1001000008F439C1EB018881823008F433C194309E
:1001100069F4843009F02FC111969C91119789815F
:10012000981709F428C1ADE2B1E025C1843009F483
:1001300021C18230A9F4923009F01DC19A01AD01AC
:1001400088E0EA010990AE01E90109929E0181501F
:10015000C1F7E201898111969C918923818308C1AD
:10016000923009F407C112962D903C901397EB0141
:100170008A819B811496AD90BD90CD90DC901797AD
:10018000EC80FD800E811F819101281B390BB90184
:1001900037FF04C066277727621B730B6032710537
:1001A0000CF061C0121613066CF537014801062EDB
:1001B00004C096948794779467940A94D2F721E0C8
:1001C00030E040E050E004C0220F331F441F551FB1
:1001D0006A95D2F721503040404050402E213F21B7
:1001E00040235123211531054105510521F021E01E
:1001F00030E040E050E079018A01E628F72808293C
:1002000019293CC0232BD1F1260E371E350146019A
:10021000062E04C096948794779467940A94D2F734
:1002200021E030E040E050E004C0220F331F441FC3
:10023000551F6A95D2F721503040404050402A2146
:100240003B214C215D21211531054105510521F04E
:1002500021E030E040E050E059016A01A628B728CB
:10026000C828D9280BC0821593052CF01C01AA249C
:10027000BB24650103C0EE24FF24870111969C91E5
:10028000D20111968C91981709F445C0992339F041
:10029000A80197012A193B094C095D0906C0A6016E
:1002A00095012E193F09400B510B57FD08C01182D3
:1002B0003382228224833583468357831DC081E0A5
:1002C00081833382228288279927DC01821B930B4A
:1002D000A40BB50B84839583A683B7830DC0220F2F
:1002E000331F441F551F24833583468357838281E0
:1002F000938101979383828324813581468157813D
:10030000DA01C9010197A109B1098F5F9F4FAF4F72
:10031000BF4328F30BC0918333822282EA0CFB1C7B
:100320000C1D1D1DE482F5820683178383E0808304
:10033000248135814681578157FF1AC0C901AA27F8
:1003400097FDA095BA2F81709070A070B0705695EF
:10035000479537952795822B932BA42BB52B848318
:100360009583A683B7838281938101969383828349
:10037000DF0101C0D201CD01CDB7DEB7E2E10C94BF
:100380000D32A0E2B0E0E7ECF1E00C94FD316983BE
:100390007A838B839C832D833E834F835887E9E048
:1003A000EE2EF12CEC0EFD1ECE010196B7010E943F
:1003B0007E058E010F5E1F4FCE010596B8010E948B
:1003C0007E058A8991E089278A8BC701B801AE0131
:1003D000475E5F4F0E9475000E94A904A096E6E068
:1003E0000C941932A0E2B0E0E8EFF1E00C94FD319A
:1003F00069837A838B839C832D833E834F835887C5
:10040000F9E0EF2EF12CEC0EFD1ECE010196B701A6
:100410000E947E058E010F5E1F4FCE010596B8012A
:100420000E947E05C701B801AE01475E5F4F0E9482
:1004300075000E94A904A096E6E00C941932A0E28F
:10044000B0E0E5E2F2E00C94F13169837A838B83CA
:100450009C832D833E834F835887CE010196BE0136
:10046000675F7F4F0E947E05CE010596BE016F5EDD
:100470007F4F0E947E059985923088F0898982306D
:10048000C8F0943019F4823051F404C0843029F457
:10049000923081F48DE291E0C6C0923049F420E0C0
:1004A0009A858A89981321E02A87CE010996BBC0D4
:1004B000823049F420E09A858A89981321E02A8BBA
:1004C000CE014196B0C02D843E844F8458886D88FB
:1004D0007E888F88988CEE24FF248701AA24BB2471
:1004E000650140E050E060E070E0E0E0F0E0C10174
:1004F00081709070892BE9F0E60CF71C081D191D1E
:100500009A01AB012A0D3B1D4C1D5D1D80E090E062
:10051000A0E0B0E0E614F7040805190520F481E036
:1005200090E0A0E0B0E0BA01A901480F591F6A1F8E
:100530007B1FAA0CBB1CCC1CDD1C97FE08C081E0F5
:1005400090E0A0E0B0E0A82AB92ACA2ADB2A3196B6
:10055000E032F10549F0660C771C881C991C569412
:10056000479437942794C3CFFA85EA892B893C892D
:100570008B859C85280F391F2E5F3F4F17C0CA01FE
:1005800081709070892B61F016950795F794E79428
:1005900080E090E0A0E0B0E8E82AF92A0A2B1B2BC3
:1005A00076956795579547952F5F3F4F77FDE7CF36
:1005B0000CC0440F551F661F771F17FD4160EE0CDE
:1005C000FF1C001F111F21503040403090E05907A0
:1005D00090E0690790E4790760F32B8F3C8FDB0193
:1005E000CA018F779070A070B07080349105A1051A
:1005F000B10561F447FD0AC0E114F10401051105DC
:1006000029F0405C5F4F6F4F7F4F40781A8EFE1786
:1006100011F081E08A8F4D8F5E8F6F8F78A383E01A
:10062000898FCE0149960E94A904A096E2E10C941C
:100630000D32A8E1B0E0EFE1F3E00C94F931698309
:100640007A838B839C832D833E834F835887B9E0C5
:10065000EB2EF12CEC0EFD1ECE010196B7010E948F
:100660007E058E010F5E1F4FCE010596B8010E94D8
:100670007E052985223008F47EC03989323010F495
:10068000B8017CC08A859A8989278A87243011F02D
:10069000223031F4231709F06EC06DE271E06EC0B4
:1006A000343039F41D861E861F86188A1C861B86E8
:1006B00004C0323021F484E08987B7015FC02B8504
:1006C0003C858B899C89281B390B3C872B87ED84C3
:1006D000FE840F851889AD88BE88CF88D88CEA142F
:1006E000FB040C051D0540F4EE0CFF1C001F111F40
:1006F000215030403C872B8720E030E040E050E044
:1007000080E090E0A0E0B0E460E070E0EA14FB0478
:100710000C051D0540F0282B392B4A2B5B2BEA18C2
:10072000FB080C091D09B695A79597958795EE0CC2
:10073000FF1C001F111F6F5F7F4F6F31710531F775
:10074000DA01C9018F779070A070B0708034910584
:10075000A105B10561F427FD0AC0E114F10401050A
:10076000110529F0205C3F4F4F4F5F4F20782D87B8
:100770003E874F87588BBE01675F7F4FCB010E943A
:10078000A9046896EAE00C941532A8E1B0E0EBEC1D
:10079000F3E00C94FD3169837A838B839C832D83F2
:1007A0003E834F83588789E0E82EF12CEC0EFD1E26
:1007B000CE010196B7010E947E058E010F5E1F4F8C
:1007C000CE010596B8010E947E058985823040F0F1
:1007D0008989823028F0C701B8010E94F60501C05E
:1007E0008FEF6896E6E00C941932A8E1B0E0EBEFE9
:1007F000F3E00C94FD3169837A838B839C832D8392
:100800003E834F83588789E0E82EF12CEC0EFD1EC5
:10081000CE010196B7010E947E058E010F5E1F4F2B
:10082000CE010596B8010E947E058985823040F090
:100830008989823028F0C701B8010E94F60501C0FD
:100840008FEF6896E6E00C941932A8E1B0E0EBE295
:10085000F4E00C94FD3169837A838B839C832D8330
:100860003E834F83588789E0E82EF12CEC0EFD1E65
:10087000CE010196B7010E947E058E010F5E1F4FCB
:10088000CE010596B8010E947E058985823040F030
:100890008989823028F0C701B8010E94F60501C09D
:1008A00081E06896E6E00C941932ACE0B0E0EBE54C
:1008B000F4E00C94013269837A838B839C83CE01AC
:1008C0000196BE016B5F7F4F0E947E058D81823055
:1008D00061F1823050F1843021F48E81882351F10E
:1008E0002EC02F81388537FD20C06E812F31310514
:1008F0001CF06623F9F023C08EE190E0821B930B7D
:1009000029853A854B855C8504C056954795379572
:1009100027958A95D2F76623B1F05095409530958A
:1009200021953F4F4F4F5F4F0EC020E030E040E039
:1009300050E009C02FEF3FEF4FEF5FE704C020E02A
:1009400030E040E050E8B901CA012C96E2E00C9496
:100950001D32DF92EF92FF920F931F93FC01E48010
:10096000F58006811781D1808081823048F480E053
:1009700090E0A0E1B0E0E82AF92A0A2B1B2BA5C0E1
:10098000843009F49FC0823021F4EE24FF248701D3
:1009900005C0E114F1040105110519F4E0E0F0E0EF
:1009A00096C0628173819FEF623879070CF05BC05B
:1009B00022E83FEF261B370B2A3131052CF020E0CF
:1009C00030E040E050E02AC0B801A701022E04C088
:1009D00076956795579547950A94D2F781E090E010
:1009E000A0E0B0E004C0880F991FAA1FBB1F2A9582
:1009F000D2F70197A109B1098E219F21A023B1232C
:100A00000097A105B10521F081E090E0A0E0B0E001
:100A10009A01AB01282B392B4A2B5B2BDA01C90138
:100A20008F779070A070B07080349105A105B105EA
:100A300039F427FF09C0205C3F4F4F4F5F4F04C080
:100A4000215C3F4F4F4F5F4FE0E0F0E02030A0E0EF
:100A50003A07A0E04A07A0E45A0710F0E1E0F0E00E
:100A600079018A0127C06038710564F5FB01E158FE
:100A7000FF4FD801C7018F779070A070B07080349D
:100A80009105A105B10539F4E7FE0DC080E490E0C1
:100A9000A0E0B0E004C08FE390E0A0E0B0E0E80E9A
:100AA000F91E0A1F1B1F17FF05C016950795F7941F
:100AB000E794319687E016950795F794E7948A9521
:100AC000D1F705C0EE24FF248701EFEFF0E06E2F91
:100AD000679566276795902F9F77D794DD24D794E5
:100AE0008E2F8695492F462B582F5D29B701CA01B5
:100AF0001F910F91FF90EF90DF900895FC01DB01B3
:100B0000408151812281622F6F7770E0221F22275E
:100B1000221F9381892F880F822B282F30E0991F65
:100B20009927991F11969C93119721153105A9F5C5
:100B3000411551056105710511F482E037C082E865
:100B40009FEF13969C938E9312979A01AB0167E0E7
:100B5000220F331F441F551F6A95D1F783E08C93F2
:100B60000DC0220F331F441F551F12968D919C916B
:100B70001397019713969C938E931297203080E0E1
:100B8000380780E0480780E4580758F314962D93FF
:100B90003D934D935C93179708952F3F310579F45A
:100BA000411551056105710519F484E08C93089590
:100BB00064FF03C081E08C9312C01C9210C02F57B9
:100BC000304013963C932E93129783E08C9387E0EA
:100BD000440F551F661F771F8A95D1F770641496CE
:100BE0004D935D936D937C93179708951F93DC014C
:100BF000FB019C91923008F447C08081823008F458
:100C000043C0943051F411961C91843099F5818140
:100C1000682F70E0611B71093FC0843021F0923071
:100C200031F48230B9F18181882389F12DC0119688
:100C30001C9111978230F1F081811817D9F4129626
:100C40002D913C911397828193818217930794F0A1
:100C500028173907BCF014968D919D910D90BC9189
:100C6000A02D2481358146815781281739074A07ED
:100C70005B0718F4112341F00AC082179307A407F9
:100C8000B50740F4112319F061E070E005C06FEF83
:100C90007FEF02C060E070E0CB011F9108950F93D9
:100CA0001F93DF93CF93CDB7DEB7C356D0400FB6B7
:100CB000F894DEBF0FBECDBFFE01ED59FF4F80831C
:100CC00082E060E040E00E94741382E061E040E076
:100CD0000E947413FE01E15AFF4F80E090E0A0E80B
:100CE000BFE380839183A283B3838E01055A1F4F94
:100CF000FE01E15AFF4F608171818281938120E082
:100D000030E04AEF54E40E941F02DC01CB01F801FD
:100D100080839183A283B383FE01E55AFF4F6081F4
:100D200071818281938120E030E040E85FE30E949E
:100D30002504882344F4FE01E75AFF4F81E090E048
:100D40009183808364C0FE01E55AFF4F6081718109
:100D50008281938120E03FEF4FE757E40E94C50373
:100D600018160CF043C0FE01E15AFF4F60817181FB
:100D70008281938120E030E040E251E40E941F0232
:100D8000DC01CB018E01075A1F4FBC01CD010E942F
:100D90004900DC01CB01F801918380831FC0FE0173
:100DA000E95AFF4F88EC90E091838083FE01E95A75
:100DB000FF4F808191810197F1F7FE01E95AFF4FC2
:100DC00091838083DE01A75ABF4FFE01E75AFF4F90
:100DD00080819181019711969C938E93FE01E75A31
:100DE000FF4F808191810097D1F627C08E01075A6D
:100DF0001F4FFE01E55AFF4F60817181828193810F
:100E00000E944900DC01CB01F80191838083DE015F
:100E1000AB5ABF4FFE01E75AFF4F808191818D93FE
:100E20009C93FE01EB5AFF4F808191810197F1F76E
:100E3000FE01EB5AFF4F9183808382E067E041E03F
:100E40000E947413FE01EF5AFF4F80E090E0A0E88B
:100E5000BFE380839183A283B3838E01035B1F4F23
:100E6000FE01EF5AFF4F608171818281938120E002
:100E700030E04AEF54E40E941F02DC01CB01F8018C
:100E800080839183A283B383FE01E35BFF4F608184
:100E900071818281938120E030E040E85FE30E942D
:100EA0002504882344F4FE01E55BFF4F81E090E0D8
:100EB0009183808364C0FE01E35BFF4F6081718199
:100EC0008281938120E03FEF4FE757E40E94C50302
:100ED00018160CF043C0FE01EF5AFF4F608171817C
:100EE0008281938120E030E040E251E40E941F02C1
:100EF000DC01CB018E01055B1F4FBC01CD010E94BF
:100F00004900DC01CB01F801918380831FC0FE0101
:100F1000E75BFF4F88EC90E091838083FE01E75B05
:100F2000FF4F808191810197F1F7FE01E75BFF4F51
:100F300091838083DE01A55BBF4FFE01E55BFF4F20
:100F400080819181019711969C938E93FE01E55BC0
:100F5000FF4F808191810097D1F627C08E01055BFC
:100F60001F4FFE01E35BFF4F60817181828193819E
:100F70000E944900DC01CB01F80191838083DE01EE
:100F8000A95BBF4FFE01E55BFF4F808191818D938F
:100F90009C93FE01E95BFF4F808191810197F1F7FE
:100FA000FE01E95BFF4F91838083FE01ED59FF4F06
:100FB000808182958F70982F917081E060E0492F39
:100FC0000E947413FE01ED59FF4F80818295869532
:100FD0008770982F917081E061E0492F0E9474130F
:100FE000FE01ED59FF4F808182958695869583702D
:100FF000982F917081E062E0492F0E947413FE01E6
:10100000ED59FF4F8081982F991F9927991F81E0F3
:1010100063E0492F0E947413FE01ED5BFF4F80E0F7
:1010200090E0A0E8BFE380839183A283B3838E0125
:10103000015C1F4FFE01ED5BFF4F6081718182817A
:10104000938120E030E04AEF54E40E941F02DC016B
:10105000CB01F80180839183A283B383FE01FF96C5
:10106000608171818281938120E030E040E85FE31C
:101070000E94250488232CF481E090E09EAF8DAF80
:1010800046C0FE01FF96608171818281938120E0DC
:101090003FEF4FE757E40E94C503181664F5FE01C1
:1010A000ED5BFF4F608171818281938120E030E0B0
:1010B00040E251E40E941F02DC01CB01BC01CD01E2
:1010C0000E944900DC01CB019EAF8DAF0FC088ECC0
:1010D00090E09CAF8BAF8BAD9CAD0197F1F79CAFCF
:1010E0008BAF8DAD9EAD01979EAF8DAF8DAD9EAD9B
:1010F000009769F716C0FE01FF96608171818281B9
:1011000093810E944900DC01CB019EAF8DAF8DAD74
:101110009EAD9AAF89AF89AD9AAD0197F1F79AAFBD
:1011200089AF82E067E040E00E94741380E090E0C5
:10113000A0E8BFE38DAB9EABAFABB8AF6DA97EA906
:101140008FA998AD20E030E04AEF54E40E941F02DE
:10115000DC01CB0189AB9AABABABBCAB69A97AA97B
:101160008BA99CA920E030E040E85FE30E942504C1
:1011700088232CF481E090E098AB8FA73FC069A949
:101180007AA98BA99CA920E03FEF4FE757E40E9482
:10119000C50318164CF56DA97EA98FA998AD20E05E
:1011A00030E040E251E40E941F02DC01CB01BC01AF
:1011B000CD010E944900DC01CB0198AB8FA70FC085
:1011C00088EC90E09EA78DA78DA59EA50197F1F7CD
:1011D0009EA78DA78FA598A9019798AB8FA78FA5DC
:1011E00098A9009769F714C069A97AA98BA99CA945
:1011F0000E944900DC01CB0198AB8FA78FA598A96D
:101200009CA78BA78BA59CA50197F1F79CA78BA703
:1012100082E067E041E00E94741380E090E0A0E883
:10122000BFE38FA398A7A9A7BAA76FA178A589A59F
:101230009AA520E030E04AEF54E40E941F02DC014E
:10124000CB018BA39CA3ADA3BEA36BA17CA18DA15D
:101250009EA120E030E040E85FE30E94250488235F
:101260002CF481E090E09AA389A33FC06BA17CA1FC
:101270008DA19EA120E03FEF4FE757E40E94C503F8
:1012800018164CF56FA178A589A59AA520E030E045
:1012900040E251E40E941F02DC01CB01BC01CD0100
:1012A0000E944900DC01CB019AA389A30FC088ECFE
:1012B00090E098A38F8F8F8D98A10197F1F798A355
:1012C0008F8F89A19AA101979AA389A389A19AA135
:1012D000009769F714C06BA17CA18DA19EA10E940B
:1012E0004900DC01CB019AA389A389A19AA19E8F11
:1012F0008D8F8D8D9E8D0197F1F79E8F8D8FFE01C5
:10130000ED59FF4F8081982F917081E060E0492F67
:101310000E947413FE01ED59FF4F80818695982F2E
:10132000917081E061E0492F0E947413FE01ED5934
:10133000FF4F808186958695982F917081E062E0BD
:10134000492F0E947413FE01ED59FF4F808186954D
:1013500086958695982F917081E063E0492F0E94D1
:10136000741380E090E0A0E8BFE3898F9A8FAB8F81
:10137000BC8F698D7A8D8B8D9C8D20E030E04AEF9B
:1013800054E40E941F02DC01CB018D8B9E8BAF8B3E
:10139000B88F6D897E898F89988D20E030E040E894
:1013A0005FE30E94250488232CF481E090E09C8B6D
:1013B0008B8B3FC06D897E898F89988D20E03FEFB0
:1013C0004FE757E40E94C50318164CF5698D7A8DD6
:1013D0008B8D9C8D20E030E040E251E40E941F02A2
:1013E000DC01CB01BC01CD010E944900DC01CB0135
:1013F0009C8B8B8B0FC088EC90E09A8B898B8989B2
:101400009A890197F1F79A8B898B8B899C8901972F
:101410009C8B8B8B8B899C89009769F714C06D8995
:101420007E898F89988D0E944900DC01CB019C8BBD
:101430008B8B8B899C89988B8F878F859889019757
:10144000F1F7988B8F8782E067E040E00E94741389
:1014500080E090E0A0E8BFE38B879C87AD87BE87E4
:101460006B857C858D859E8520E030E04AEF54E4D5
:101470000E941F02DC01CB018F839887A987BA875E
:101480006F81788589859A8520E030E040E85FE3C8
:101490000E94250488232CF481E090E09E838D83B4
:1014A0003FC06F81788589859A8520E03FEF4FE7BF
:1014B00057E40E94C50318164CF56B857C858D8515
:1014C0009E8520E030E040E251E40E941F02DC01F2
:1014D000CB01BC01CD010E944900DC01CB019E8300
:1014E0008D830FC088EC90E09C838B838B819C81E3
:1014F0000197F1F79C838B838D819E8101979E8359
:101500008D838D819E81009769F714C06F817885E6
:1015100089859A850E944900DC01CB019E838D83D9
:101520008D819E819A83898389819A810197F1F7C0
:101530009A838983CD59DF4F0FB6F894DEBF0FBE73
:10154000CDBFCF91DF911F910F9108950F931F93FE
:10155000DF93CF93CDB7DEB7C356D0400FB6F89424
:10156000DEBF0FBECDBFFE01ED59FF4F808382E08D
:1015700060E041E00E94741382E061E040E00E947C
:101580007413FE01E15AFF4F80E090E0A0E8BFE352
:1015900080839183A283B3838E01055A1F4FFE017E
:1015A000E15AFF4F608171818281938120E030E0B8
:1015B0004AEF54E40E941F02DC01CB01F801808352
:1015C0009183A283B383FE01E55AFF4F608171814D
:1015D0008281938120E030E040E85FE30E942504AF
:1015E000882344F4FE01E75AFF4F81E090E09183A5
:1015F000808364C0FE01E55AFF4F60817181828162
:10160000938120E03FEF4FE757E40E94C50318168F
:101610000CF043C0FE01E15AFF4F6081718182816D
:10162000938120E030E040E251E40E941F02DC019F
:10163000CB018E01075A1F4FBC01CD010E9449000A
:10164000DC01CB01F801918380831FC0FE01E95AC0
:10165000FF4F88EC90E091838083FE01E95AFF4FB1
:10166000808191810197F1F7FE01E95AFF4F918343
:101670008083DE01A75ABF4FFE01E75AFF4F8081EA
:101680009181019711969C938E93FE01E75AFF4F2B
:10169000808191810097D1F627C08E01075A1F4F94
:1016A000FE01E55AFF4F60817181828193810E9422
:1016B0004900DC01CB01F80191838083DE01AB5A44
:1016C000BF4FFE01E75AFF4F808191818D939C931C
:1016D000FE01EB5AFF4F808191810197F1F7FE01E6
:1016E000EB5AFF4F9183808382E067E041E00E94E4
:1016F0007413FE01EF5AFF4F80E090E0A0E8BFE3D3
:1017000080839183A283B3838E01035B1F4FFE010D
:10171000EF5AFF4F608171818281938120E030E038
:101720004AEF54E40E941F02DC01CB01F8018083E0
:101730009183A283B383FE01E35BFF4F60817181DC
:101740008281938120E030E040E85FE30E9425043D
:10175000882344F4FE01E55BFF4F81E090E0918334
:10176000808364C0FE01E35BFF4F608171818281F1
:10177000938120E03FEF4FE757E40E94C50318161E
:101780000CF043C0FE01EF5AFF4F608171818281EE
:10179000938120E030E040E251E40E941F02DC012E
:1017A000CB018E01055B1F4FBC01CD010E9449009A
:1017B000DC01CB01F801918380831FC0FE01E75B50
:1017C000FF4F88EC90E091838083FE01E75BFF4F41
:1017D000808191810197F1F7FE01E75BFF4F9183D3
:1017E0008083DE01A55BBF4FFE01E55BFF4F80817B
:1017F0009181019711969C938E93FE01E55BFF4FBB
:10180000808191810097D1F627C08E01055B1F4F23
:10181000FE01E35BFF4F60817181828193810E94B1
:101820004900DC01CB01F80191838083DE01A95BD3
:10183000BF4FFE01E55BFF4F808191818D939C93AB
:10184000FE01E95BFF4F808191810197F1F7FE0175
:10185000E95BFF4F91838083FE01ED59FF4F80814B
:1018600082958F70982F917081E060E0492F0E94DF
:101870007413FE01ED59FF4F808182958695877024
:10188000982F917081E061E0492F0E947413FE014E
:10189000ED59FF4F80818295869586958370982FAC
:1018A000917081E062E0492F0E947413FE01ED59AE
:1018B000FF4F8081982F991F9927991F81E063E03E
:1018C000492F0E947413FE01ED5BFF4F80E090E012
:1018D000A0E8BFE380839183A283B3838E01015C80
:1018E0001F4FFE01ED5BFF4F60817181828193810B
:1018F00020E030E04AEF54E40E941F02DC01CB01FB
:10190000F80180839183A283B383FE01FF966081F7
:1019100071818281938120E030E040E85FE30E94A2
:10192000250488232CF481E090E09EAF8DAF46C063
:10193000FE01FF96608171818281938120E03FEFFB
:101940004FE757E40E94C503181664F5FE01ED5BEE
:10195000FF4F608171818281938120E030E040E21D
:1019600051E40E941F02DC01CB01BC01CD010E94A9
:101970004900DC01CB019EAF8DAF0FC088EC90E039
:101980009CAF8BAF8BAD9CAD0197F1F79CAF8BAF4C
:101990008DAD9EAD01979EAF8DAF8DAD9EAD009785
:1019A00069F716C0FE01FF96608171818281938183
:1019B0000E944900DC01CB019EAF8DAF8DAD9EAD85
:1019C0009AAF89AF89AD9AAD0197F1F79AAF89AF18
:1019D00082E067E040E00E94741380E090E0A0E8BD
:1019E000BFE38DAB9EABAFABB8AF6DA97EA98FA99E
:1019F00098AD20E030E04AEF54E40E941F02DC0181
:101A0000CB0189AB9AABABABBCAB69A97AA98BA96B
:101A10009CA920E030E040E85FE30E942504882391
:101A20002CF481E090E098AB8FA73FC069A97AA918
:101A30008BA99CA920E03FEF4FE757E40E94C50324
:101A400018164CF56DA97EA98FA998AD20E030E05D
:101A500040E251E40E941F02DC01CB01BC01CD0138
:101A60000E944900DC01CB0198AB8FA70FC088EC26
:101A700090E09EA78DA78DA59EA50197F1F79EA743
:101A80008DA78FA598A9019798AB8FA78FA598A927
:101A9000009769F714C069A97AA98BA99CA90E942B
:101AA0004900DC01CB0198AB8FA78FA598A99CA713
:101AB0008BA78BA59CA50197F1F79CA78BA782E02C
:101AC00067E041E00E94741380E090E0A0E8BFE38B
:101AD0008FA398A7A9A7BAA76FA178A589A59AA54A
:101AE00020E030E04AEF54E40E941F02DC01CB0109
:101AF0008BA39CA3ADA3BEA36BA17CA18DA19EA132
:101B000020E030E040E85FE30E94250488232CF4C5
:101B100081E090E09AA389A33FC06BA17CA18DA135
:101B20009EA120E03FEF4FE757E40E94C50318163F
:101B30004CF56FA178A589A59AA520E030E040E298
:101B400051E40E941F02DC01CB01BC01CD010E94C7
:101B50004900DC01CB019AA389A30FC088EC90E077
:101B600098A38F8F8F8D98A10197F1F798A38F8FEE
:101B700089A19AA101979AA389A389A19AA1009703
:101B800069F714C06BA17CA18DA19EA10E944900A0
:101B9000DC01CB019AA389A389A19AA19E8F8D8F85
:101BA0008D8D9E8D0197F1F79E8F8D8FFE01ED59E2
:101BB000FF4F8081982F917081E060E0492F0E9453
:101BC0007413FE01ED59FF4F80818695982F917017
:101BD00081E061E0492F0E947413FE01ED59FF4F2F
:101BE000808186958695982F917081E062E0492FDB
:101BF0000E947413FE01ED59FF4F808186958695F2
:101C00008695982F917081E063E0492F0E947413AC
:101C100080E090E0A0E8BFE3898F9A8FAB8FBC8F04
:101C2000698D7A8D8B8D9C8D20E030E04AEF54E4F5
:101C30000E941F02DC01CB018D8B9E8BAF8BB88F76
:101C40006D897E898F89988D20E030E040E85FE3E0
:101C50000E94250488232CF481E090E09C8B8B8BE0
:101C60003FC06D897E898F89988D20E03FEF4FE7D7
:101C700057E40E94C50318164CF5698D7A8D8B8D3B
:101C80009C8D20E030E040E251E40E941F02DC0124
:101C9000CB01BC01CD010E944900DC01CB019C8B32
:101CA0008B8B0FC088EC90E09A8B898B89899A89FD
:101CB0000197F1F79A8B898B8B899C8901979C8B73
:101CC0008B8B8B899C89009769F714C06D897E89FD
:101CD0008F89988D0E944900DC01CB019C8B8B8BF6
:101CE0008B899C89988B8F878F8598890197F1F7CD
:101CF000988B8F8782E067E040E00E94741380E059
:101D000090E0A0E8BFE38B879C87AD87BE876B859B
:101D10007C858D859E8520E030E04AEF54E40E946A
:101D20001F02DC01CB018F839887A987BA876F8157
:101D3000788589859A8520E030E040E85FE30E945D
:101D4000250488232CF481E090E09E838D833FC09E
:101D50006F81788589859A8520E03FEF4FE757E4CA
:101D60000E94C50318164CF56B857C858D859E8574
:101D700020E030E040E251E40E941F02DC01CB0190
:101D8000BC01CD010E944900DC01CB019E838D8303
:101D90000FC088EC90E09C838B838B819C810197A2
:101DA000F1F79C838B838D819E8101979E838D8328
:101DB0008D819E81009769F714C06F817885898530
:101DC0009A850E944900DC01CB019E838D838D8121
:101DD0009E819A83898389819A810197F1F79A83F9
:101DE0008983CD59DF4F0FB6F894DEBF0FBECDBF4C
:101DF000CF91DF911F910F910895DF93CF93CDB7CE
:101E0000DEB72E970FB6F894DEBF0FBECDBF82E0CF
:101E100060E041E00E94551182E061E041E00E94F3
:101E2000551182E067E041E00E94551180E090E0AA
:101E3000A0EAB1E48B879C87AD87BE876B857C85E4
:101E40008D859E8520E030E04AEF54E40E941F0219
:101E5000DC01CB018F839887A987BA876F8178854A
:101E600089859A8520E030E040E85FE30E94250400
:101E700088232CF481E090E09E838D833FC06F81A6
:101E8000788589859A8520E03FEF4FE757E40E94E7
:101E9000C50318164CF56B857C858D859E8520E0E5
:101EA00030E040E251E40E941F02DC01CB01BC01A2
:101EB000CD010E944900DC01CB019E838D830FC0C0
:101EC00088EC90E09C838B838B819C810197F1F758
:101ED0009C838B838D819E8101979E838D838D81D1
:101EE0009E81009769F714C06F81788589859A85EE
:101EF0000E944900DC01CB019E838D838D819E81F0
:101F00009A83898389819A810197F1F79A838983DA
:101F100081E060E041E00E94551181E061E041E034
:101F20000E94551181E062E041E00E94551181E07C
:101F300063E041E00E94551183E30E944F0682E373
:101F40000E944F0688E20E944F068CE00E944F06D6
:101F500081E00E944F062E960FB6F894DEBF0FBEAA
:101F6000CDBFCF91DF910895DF93CF9300D00F9233
:101F7000CDB7DEB79B838A8319820EC08981282F53
:101F800030E08A819B81FC01E20FF31F80810E9477
:101F9000A60A89818F5F89838981282F30E08A8111
:101FA0009B81FC01E20FF31F8081882339F70F909A
:101FB0000F900F90CF91DF910895DF93CF9300D0D2
:101FC00000D0CDB7DEB789836A838981282F30E0BE
:101FD0003C832B838B819C8181309105D1F02B81B7
:101FE0003C81223031052CF48B819C81009761F07B
:101FF0001DC02B813C812230310581F08B819C8179
:102000008330910579F012C08A8180580E944F0672
:102010000DC08A8180540E944F0608C08A810E94A8
:102020004F0604C08A81805C0E944F060F900F907B
:102030000F900F90CF91DF910895DF93CF9300D051
:1020400000D0CDB7DEB789836A835C834B838981F7
:102050006A810E94DD0F8B819C810E94B40F0F90DA
:102060000F900F900F90CF91DF910895DF93CF9352
:10207000CDB7DEB727970FB6F894DEBF0FBECDBF42
:102080009C838B836D834E832F831A8281E08093A0
:1020900036018D81882F90E0880F991F880F991F36
:1020A000880F991F8A838A81805C0E944F0619825B
:1020B0000EC08981282F30E08B819C81FC01E20FCA
:1020C000F31F80810E94A60A89818F5F898389819D
:1020D000883078F38E816F810E94DD0F8D810E94A0
:1020E000A60A1092360127960FB6F894DEBF0FBEEF
:1020F000CDBFCF91DF910895DF93CF93CDB7DEB7FA
:1021000061970FB6F894DEBF0FBECDBF6E877F8795
:10211000888B998B8FEF8A838A818F5F8A838E85E4
:102120009F85A889B9892AE030E040E050E0BC01F1
:10213000CD010E94B431DC01CB018B838A81282F31
:10214000332727FD30958B81482F405DCE010496C3
:10215000FC01E20FF31F40838E859F85A889B98912
:102160002AE030E040E050E0BC01CD010E94B431F3
:10217000DA01C9018E879F87A88BB98B8E859F85D1
:10218000A889B9890097A105B10531F68A818983AB
:1021900010C08981282F332727FD3095CE01049662
:1021A000FC01E20FF31F80810E94A60A8981815001
:1021B0008983898188236CF761960FB6F894DEBF16
:1021C0000FBECDBFCF91DF910895DF93CF93CDB7F1
:1021D000DEB761970FB6F894DEBF0FBECDBF898B17
:1021E0008989882F90E09E012F5F3F4FB9014AE017
:1021F00050E00E942832CE0101960E94B40F6196F1
:102200000FB6F894DEBF0FBECDBFCF91DF9108951A
:10221000DF93CF93CDB7DEB781E00E944F06CF9119
:10222000DF910895DF93CF93CDB7DEB783E060E011
:1022300041E00E94551183E061E041E00E945511A8
:1022400083E062E041E00E94551183E063E041E0F9
:102250000E94551183E066E041E00E94551183E041
:1022600067E041E00E94551183E060E040E00E9499
:10227000741383E061E041E00E94741383E062E044
:1022800040E00E94741383E063E040E00E94741316
:1022900083E066E040E00E94741383E067E040E082
:1022A0000E947413CF91DF910895DF93CF93CDB740
:1022B000DEB72A970FB6F894DEBF0FBECDBF8A8374
:1022C0006B834C8319828B81883008F0B9C18C8173
:1022D000882309F077C08A81282F30E03A87298740
:1022E00089859A858130910559F129853A85223071
:1022F00031052CF489859A85009769F060C029859D
:102300003A852230310589F189859A858330910596
:1023100009F440C054C0AAE3B0E0EAE3F0E08081F1
:10232000482F8B81282F30E081E090E0022E02C000
:10233000880F991F0A94E2F7809584238C9382C1B9
:10234000A7E3B0E0E7E3F0E08081482F8B81282FFE
:1023500030E081E090E0022E02C0880F991F0A94BD
:10236000E2F7809584238C936DC1A4E3B0E0E4E3AD
:10237000F0E08081482F8B81282F30E081E090E0D1
:10238000022E02C0880F991F0A94E2F780958423D9
:102390008C9358C1A1E3B0E0E1E3F0E08081482FE5
:1023A0008B81282F30E081E090E0022E02C0880F60
:1023B000991F0A94E2F7809584238C9343C181E0AE
:1023C000898340C18C81813009F072C08A81282FB5
:1023D00030E038872F838F8198858130910549F1CE
:1023E0002F813885223031052CF48F819885009714
:1023F00061F05BC02F8138852230310571F18F810A
:10240000988583309105E9F150C0AAE3B0E0EAE392
:10241000F0E08081482F8B81282F30E081E090E030
:10242000022E02C0880F991F0A94E2F7842B8C9326
:1024300009C1A7E3B0E0E7E3F0E08081482F8B819A
:10244000282F30E081E090E0022E02C0880F991F13
:102450000A94E2F7842B8C93F5C0A4E3B0E0E4E3A4
:10246000F0E08081482F8B81282F30E081E090E0E0
:10247000022E02C0880F991F0A94E2F7842B8C93D6
:10248000E1C0A1E3B0E0E1E3F0E08081482F8B817F
:10249000282F30E081E090E0022E02C0880F991FC3
:1024A0000A94E2F7842B8C93CDC081E08983CAC063
:1024B0008C81823009F0C1C08A81282F30E03E83B0
:1024C0002D838D819E818130910509F43EC02D813F
:1024D0003E81223031052CF48D819E81009771F070
:1024E000A9C02D813E812230310509F455C08D816E
:1024F0009E818330910509F476C09CC0AAE3B0E0C8
:10250000EAE3F0E08081482F8B81282F30E081E0E2
:1025100090E002C0880F991F2A95E2F780958423E6
:102520008C93ABE3B0E0EBE3F0E08081482F8B814C
:10253000282F30E081E090E0022E02C0880F991F22
:102540000A94E2F7842B8C937DC0A7E3B0E0E7E325
:10255000F0E08081482F8B81282F30E081E090E0EF
:1025600002C0880F991F2A95E2F7809584238C93E7
:10257000A8E3B0E0E8E3F0E08081482F8B81282FCA
:1025800030E081E090E0022E02C0880F991F0A948B
:10259000E2F7842B8C9356C0A4E3B0E0E4E3F0E0D0
:1025A0008081482F8B81282F30E081E090E002C0AD
:1025B000880F991F2A95E2F7809584238C93A5E3D1
:1025C000B0E0E5E3F0E08081482F8B81282F30E0F8
:1025D00081E090E0022E02C0880F991F0A94E2F772
:1025E000842B8C932FC0A1E3B0E0E1E3F0E0808185
:1025F000482F8B81282F30E081E090E002C0880FC7
:10260000991F2A95E2F7809584238C93A2E3B0E08A
:10261000E2E3F0E08081482F8B81282F30E081E0D9
:1026200090E0022E02C0880F991F0A94E2F7842BD3
:102630008C9308C081E0898305C081E0898302C052
:1026400081E0898389812A960FB6F894DEBF0FBE98
:10265000CDBFCF91DF910895DF93CF9300D000D00D
:102660000F92CDB7DEB78A836B8319828A81282FB8
:1026700030E03D832C838C819D8181309105D1F0A8
:102680002C813D81223031052CF48C819D81009775
:1026900061F01FC02C813D812230310581F08C8199
:1026A0009D818330910581F014C0EAE3F0E08B81D5
:1026B000808311C0E7E3F0E08B8180830CC0E4E30A
:1026C000F0E08B81808307C0E1E3F0E08B818083C1
:1026D00002C081E0898389810F900F900F900F9045
:1026E0000F90CF91DF910895DF93CF93CDB7DEB7F1
:1026F00028970FB6F894DEBF0FBECDBF8A836B83D9
:102700004C8319828B81883008F0F4C08C81882337
:1027100009F077C08A81282F30E038872F838F8196
:1027200098858130910559F12F8138852230310506
:102730002CF48F819885009769F060C02F813885CF
:102740002230310589F18F8198858330910509F414
:1027500040C054C0ABE3B0E0EBE3F0E08081482F31
:102760008B81282F30E081E090E0022E02C0880F9C
:10277000991F0A94E2F7809584238C93BDC0A8E347
:10278000B0E0E8E3F0E08081482F8B81282F30E033
:1027900081E090E0022E02C0880F991F0A94E2F7B0
:1027A000809584238C93A8C0A5E3B0E0E5E3F0E036
:1027B0008081482F8B81282F30E081E090E0022E2D
:1027C00002C0880F991F0A94E2F7809584238C93A6
:1027D00093C0A2E3B0E0E2E3F0E08081482F8B8178
:1027E000282F30E081E090E0022E02C0880F991F70
:1027F0000A94E2F7809584238C937EC081E08983DC
:102800007BC08C81813009F072C08A81282F30E032
:102810003E832D838D819E818130910549F12D81EB
:102820003E81223031052CF48D819E81009761F02C
:102830005BC02D813E812230310571F18D819E81F9
:1028400083309105E9F150C0ABE3B0E0EBE3F0E099
:102850008081482F8B81282F30E081E090E0022E8C
:1028600002C0880F991F0A94E2F7842B8C9344C00E
:10287000A8E3B0E0E8E3F0E08081482F8B81282FC7
:1028800030E081E090E0022E02C0880F991F0A9488
:10289000E2F7842B8C9330C0A5E3B0E0E5E3F0E0F1
:1028A0008081482F8B81282F30E081E090E0022E3C
:1028B00002C0880F991F0A94E2F7842B8C931CC0E6
:1028C000A2E3B0E0E2E3F0E08081482F8B81282F83
:1028D00030E081E090E0022E02C0880F991F0A9438
:1028E000E2F7842B8C9308C081E0898305C081E0E6
:1028F000898302C081E08983898128960FB6F89484
:10290000DEBF0FBECDBFCF91DF910895DF93CF9390
:1029100000D000D00F92CDB7DEB78A836B831982C7
:102920008A81282F30E03D832C838C819D818130EA
:102930009105D1F02C813D81223031052CF48C8120
:102940009D81009761F01FC02C813D8122303105AF
:1029500081F08C819D818330910581F014C0EBE37F
:10296000F0E08B81808311C0E8E3F0E08B8180830D
:102970000CC0E5E3F0E08B81808307C0E2E3F0E088
:102980008B81808302C081E0898389810F900F90C1
:102990000F900F900F90CF91DF910895DF93CF9319
:1029A00000D000D00F92CDB7DEB78A836B83198237
:1029B0008A81282F30E03D832C838C819D8181305A
:1029C000910549F12C813D81223031052CF48C8117
:1029D0009D81009761F05BC02C813D8122303105E3
:1029E00071F18C819D8183309105E9F150C0ABE399
:1029F000B0E0EBE3F0E08081482F8B81282F30E0BE
:102A000081E090E0022E02C0880F991F0A94E2F73D
:102A100084278C933EC0A8E3B0E0E8E3F0E0808137
:102A2000482F8B81282F30E081E090E0022E02C0F9
:102A3000880F991F0A94E2F784278C932AC0A5E394
:102A4000B0E0E5E3F0E08081482F8B81282F30E073
:102A500081E090E0022E02C0880F991F0A94E2F7ED
:102A600084278C9316C0A2E3B0E0E2E3F0E080811B
:102A7000482F8B81282F30E081E090E0022E02C0A9
:102A8000880F991F0A94E2F784278C9302C081E093
:102A9000898389810F900F900F900F900F90CF91A5
:102AA000DF910895DF93CF93CDB7DEB727970FB6A9
:102AB000F894DEBF0FBECDBF8A836B835D834C83EA
:102AC00019828C819D81009709F478C08B818830B0
:102AD00008F074C08A81282F30E03F832E834E8116
:102AE0005F814130510559F18E819F81823091057E
:102AF00034F42E813F812115310569F05CC04E818F
:102B00005F814230510579F18E819F81833091053B
:102B100009F43DC050C0E9E3F0E08081282F30E0A7
:102B20008B81882F90E0A90102C0559547958A9521
:102B3000E2F7CA018170EC81FD81808341C0E6E348
:102B4000F0E08081282F30E08B81882F90E0A90170
:102B500002C0559547958A95E2F7CA018170EC81CC
:102B6000FD8180832DC0E3E3F0E08081282F30E0F9
:102B70008B81882F90E0A90102C0559547958A95D1
:102B8000E2F7CA018170EC81FD81808319C0E0E326
:102B9000F0E08081282F30E08B81882F90E0A90120
:102BA00002C0559547958A95E2F7CA018170EC817C
:102BB000FD81808305C081E0898302C081E0898333
:102BC000898127960FB6F894DEBF0FBECDBFCF9197
:102BD000DF910895DF93CF93CDB7DEB727970FB678
:102BE000F894DEBF0FBECDBF8B837D836C831A82CA
:102BF0008C819D81009709F43EC08B81282F30E0A5
:102C00003F832E838E819F8181309105E1F02E815B
:102C10003F81223031052CF48E819F81009761F035
:102C200027C02E813F8122303105A1F08E819F8106
:102C300083309105B1F01CC0E9E3F0E08081EC81C4
:102C4000FD8180831AC0E6E3F0E08081EC81FD81A4
:102C5000808313C0E3E3F0E08081EC81FD81808319
:102C60000CC0E0E3F0E08081EC81FD81808305C051
:102C700081E08A8302C081E08A838A8127960FB629
:102C8000F894DEBF0FBECDBFCF91DF910895DF93E3
:102C9000CF9300D000D0CDB7DEB79B838A836C83FF
:102CA0001982EEE3F0E08A819B8191838083EDE3DA
:102CB000F0E08C818083ACE3B0E0ECE3F0E0808175
:102CC00084608C93ACE3B0E0ECE3F0E08081826060
:102CD0008C93ECE3F0E080818695882F90E0817002
:102CE00090708823B1F789810F900F900F900F900B
:102CF000CF91DF910895DF93CF9300D0CDB7DEB7AA
:102D00009A838983EEE3F0E089819A8191838083BD
:102D1000ACE3B0E0ECE3F0E0808181608C93EDE324
:102D2000F0E080810F900F90CF91DF910895DF93B5
:102D3000CF93CDB7DEB7AFE5B0E0EFE5F0E080814F
:102D400080688C93CF91DF910895DF93CF93CDB7B7
:102D5000DEB7AFE5B0E0EFE5F0E080818F778C93F0
:102D6000CF91DF910895DF93CF93CDB7DEB780E0A9
:102D700060E041E00E94551180E061E041E00E9486
:102D8000551180E062E041E00E94551180E063E06F
:102D900041E00E94551180E060E041E00E94741320
:102DA00080E061E041E00E94741380E062E041E075
:102DB0000E94741380E063E041E00E94741380E09D
:102DC00064E042E00E94551180E065E042E00E942C
:102DD000551180E066E042E00E94551180E067E016
:102DE00042E00E945511CF91DF910895DF93CF9378
:102DF00000D0CDB7DEB719824CC0EAE3F0E089819C
:102E0000282F30E080E190E002C0880F991F2A95BA
:102E1000E2F78083EBE3F0E08981282F30E080E166
:102E200090E0022E02C0880F991F0A94E2F7809565
:102E300080831A8228C0E9E3F0E08081282F30E007
:102E40008A81882F90E0A90102C0559547958A95FF
:102E5000E2F7CA0181709070009791F48A81882FFF
:102E600090E0880F991F880F991F982F8981890FEB
:102E70008F5F0E944E170F900F90CF91DF910895B2
:102E80008A818F5F8A838A818430A8F289818F5FEB
:102E900089838981843008F4B0CFADCFDF93CF939D
:102EA00000D000D00F92CDB7DEB789838981282F5B
:102EB00030E03C832B838B819C818830910509F421
:102EC00070C02B813C81293031055CF58B819C8160
:102ED0008430910509F459C02B813C81253031059E
:102EE0009CF48B819C818230910509F448C02B8130
:102EF0003C81233031050CF045C08B819C818130B1
:102F0000910509F439C068C02B813C812630310518
:102F100009F441C08B819C81873091050CF03EC043
:102F200037C02B813C812C30310509F446C08B81A0
:102F30009C818D3091055CF42B813C812A303105D8
:102F4000B1F18B819C818B309105A4F52DC02B8133
:102F50003C812E303105B9F18B819C818E309105F9
:102F60007CF12B813C812F30310581F18B819C815B
:102F70008031910571F130C091E29A832EC020E436
:102F80002A832BC033E23A8328C084E28A8325C097
:102F90009AE29A8322C024E32A831FC037E33A834C
:102FA0001CC081E38A8319C090E39A8316C025E38D
:102FB0002A8313C038E33A8310C082E38A830DC0AA
:102FC00093E29A830AC026E32A8307C039E33A834F
:102FD00004C083E38A8301C002C09A819D838D81EE
:102FE0000F900F900F900F900F90CF91DF91089559
:102FF000AF92BF92CF92DF92EF92FF920F931F9307
:10300000DF93CF93CDB7DEB764970FB6F894DEBFEA
:103010000FBECDBF6D837E838F83988729873A87C4
:103020004B875C87ED86FE860F87188BA98ABA8A44
:10303000CB8ADC8A29A13AA14BA15CA18D819E811A
:10304000AF81B88579018A01E81AF90A0A0B1B0BCE
:10305000D801C70189839A83AB83BC8329893A89C4
:103060004B895C898D859E85AF85B889281B390B76
:103070004A0B5B0B89819A81AB81BC81BC01CD017C
:103080000E946E31DC01CB0189839A83AB83BC83C0
:1030900029853A854B855C858D819E81AF81B88578
:1030A000281B390B4A0B5B0B89819A81AB81BC8150
:1030B000BC01CD010E94D631DA01C90189839A830E
:1030C000AB83BC8329813A814B815C818D859E8550
:1030D000AF85B889820F931FA41FB51F89839A8378
:1030E000AB83BC8389819A81AB81BC81BC01CD015A
:1030F00064960FB6F894DEBF0FBECDBFCF91DF91BF
:103100001F910F91FF90EF90DF90CF90BF90AF9005
:103110000895DF93CF93CDB7DEB781E065E041E05E
:103120000E94551181E066E040E00E94551181E067
:1031300067E041E00E94551181E064E041E00E94B7
:103140005511ADE2B0E0EDE2F0E0808180618C935A
:10315000ADE2B0E0EDE2F0E0808181608C93ADE221
:10316000B0E0EDE2F0E080818D7F8C93AEE2B0E0E4
:10317000EEE2F0E080818E7F8C93ADE2B0E0EDE294
:10318000F0E0808180648C93CF91DF910895DF938C
:10319000CF93CDB7DEB781E064E040E00E945511E7
:1031A00081E065E040E00E94551181E066E041E089
:1031B0000E94551181E067E040E00E945511ADE2A8
:1031C000B0E0EDE2F0E080818F7E8C93ADE2B0E084
:1031D000EDE2F0E0808180648C93CF91DF910895DF
:1031E000DF93CF930F92CDB7DEB78983EFE2F0E0A4
:1031F00089818083EEE2F0E080818823DCF70F9004
:10320000CF91DF910895DF93CF93CDB7DEB7EEE294
:10321000F0E080818823DCF7EFE2F0E08081CF915D
:10322000DF910895DF93CF930F92CDB7DEB78983F7
:10323000EFE2F0E089818083EEE2F0E08081882394
:10324000DCF7EFE2F0E080810F90CF91DF910895FD
:10325000DF93CF93CDB7DEB7ADE2B0E0EDE2F0E0C3
:10326000808180688C93CF91DF910895DF93CF9315
:10327000CDB7DEB7ADE2B0E0EDE2F0E080818F7770
:103280008C93CF91DF910895DF93CF9300D0CDB78A
:10329000DEB79A83898389819A81909338018093DC
:1032A00037010F900F90CF91DF9108951F920F92E9
:1032B0000FB60F9211242F933F934F935F936F9309
:1032C0007F938F939F93AF93BF93EF93FF93DF937E
:1032D000CF93CDB7DEB7E0913701F0913801099572
:1032E000CF91DF91FF91EF91BF91AF919F918F911E
:1032F0007F916F915F914F913F912F910F900FBEF2
:103300000F901F901895DF93CF93CDB7DEB783E072
:1033100065E041E00E94551183E064E041E00E94D5
:1033200055118EE062E042E00E94451C80E29EE47E
:103330000E947C21CF91DF910895DF93CF93CDB789
:10334000DEB783E064E041E00E9455118EE062E068
:1033500042E00E94451C8FE19EE40E947C21CF91B7
:10336000DF910895AF92BF92CF92DF92EF92FF92DA
:103370000F931F93DF93CF9300D000D000D0CDB731
:10338000DEB76B837C838D839E838B819C81AD8133
:10339000BE8100D000D0EDB7FEB731968083918317
:1033A000A283B38360E070E080E090E024EB30E043
:1033B00040E050E00F2EFEEEEF2EF2E0FF2EF0E0A8
:1033C0000F2FF0E01F2FF02D0F2EF4ECAF2EF9E0B1
:1033D000BF2EF0E0CF2EF0E0DF2EF02D0E94F81788
:1033E0000F900F900F900F90DC01CB019A8389838F
:1033F00089819A810E944E2126960FB6F894DEBFED
:103400000FBECDBFCF91DF911F910F91FF90EF9035
:10341000DF90CF90BF90AF900895AF92BF92CF92C0
:10342000DF92EF92FF920F931F93DF93CF9300D021
:1034300000D000D0CDB7DEB76B837C838D839E83B5
:103440008B819C81AD81BE8100D000D0EDB7FEB7ED
:10345000319680839183A283B38360E070E080E043
:1034600090E024EB30E040E050E00F2EFEEEEF2E37
:10347000F2E0FF2EF0E00F2FF0E01F2FF02D0F2EC7
:10348000F4ECAF2EF9E0BF2EF0E0CF2EF0E0DF2E0F
:10349000F02D0E94F8170F900F900F900F90DC0105
:1034A000CB019A83898389819A810E94652126961E
:1034B0000FB6F894DEBF0FBECDBFCF91DF911F9145
:1034C0000F91FF90EF90DF90CF90BF90AF90089555
:1034D000DF93CF93CDB7DEB7A3E5B0E0E3E5F0E04F
:1034E000808180648C93A3E5B0E0E3E5F0E0808127
:1034F000877F8C93A3E5B0E0E3E5F0E080818F7EE9
:103500008C93A3E5B0E0E3E5F0E0808180628C93EA
:10351000A3E5B0E0E3E5F0E0808181608C93A3E572
:10352000B0E0E3E5F0E080818D7F8C93A3E5B0E02F
:10353000E3E5F0E0808184608C9380E090E0A0E897
:10354000B4E480934C0190934D01A0934E01B0934D
:103550004F01CF91DF910895DF93CF9300D000D03A
:1035600000D0CDB7DEB769837A838B839C835E837B
:103570004D8326960FB6F894DEBF0FBECDBFCF9118
:10358000DF9108950F931F93DF93CF93CDB7DEB7ED
:1035900028970FB6F894DEBF0FBECDBF6D837E8334
:1035A0008F8398876D817E818F81988520E030E8B8
:1035B0004FEF53E40E941F02DC01CB01BC01CD019F
:1035C00020E030E048EC52E40E941903DC01CB011A
:1035D00089839A83AB83BC830CE510E069817A818F
:1035E0008B819C810E944900DC01CB01F801808322
:1035F00028960FB6F894DEBF0FBECDBFCF91DF91F6
:103600001F910F910895DF93CF93CDB7DEB7A5E457
:10361000B0E0E5E4F0E0808180648C93A5E4B0E064
:10362000E5E4F0E08081877F8C93A5E4B0E0E5E4F9
:10363000F0E080818F7E8C93A5E4B0E0E5E4F0E0DB
:10364000808180628C93A5E4B0E0E5E4F0E08081C5
:1036500081608C93A5E4B0E0E5E4F0E080818D7FAB
:103660008C93A5E4B0E0E5E4F0E0808184608C9385
:1036700080E090E0A0E8B4E4809354019093550179
:10368000A0935601B0935701CF91DF910895DF9336
:10369000CF9300D000D000D0CDB7DEB769837A8356
:1036A0008B839C835E834D8326960FB6F894DEBF92
:1036B0000FBECDBFCF91DF9108950F931F93DF937E
:1036C000CF93CDB7DEB728970FB6F894DEBF0FBE05
:1036D000CDBF6D837E838F8398876D817E818F813F
:1036E000988520E030E84FEF53E40E941F02DC0190
:1036F000CB01BC01CD0120E030E048EC52E40E9457
:103700001903DC01CB0189839A83AB83BC8303E477
:1037100010E069817A818B819C810E944900DC01E3
:10372000CB01F801808328960FB6F894DEBF0FBE58
:10373000CDBFCF91DF911F910F9108951F920F92EE
:103740000FB60F9211242F933F934F935F936F9374
:103750007F938F939F93AF93BF93EF93FF93DF93E9
:10376000CF93CDB7DEB78091390190913A010196A0
:1037700090933A01809339018091390190913A01F7
:103780009C0140E050E08091500190915101A09146
:103790005201B0915301281739074A075B07A1F47A
:1037A000E4E4F0E08091600190916101A0916201F8
:1037B000B09163018083E0913F01F0914001099550
:1037C00010923A0110923901CF91DF91FF91EF9160
:1037D000BF91AF919F918F917F916F915F914F9129
:1037E0003F912F910F900FBE0F901F9018951F9231
:1037F0000F920FB60F9211242F933F934F935F9325
:103800006F937F938F939F93AF93BF93EF93FF93A8
:10381000DF93CF93CDB7DEB780913B0190913C0110
:10382000019690933C0180933B0180913B019091E4
:103830003C019C0140E050E080915C0190915D0171
:10384000A0915E01B0915F01281739074A075B0715
:1038500049F4E0913F01F0914001099510923C013B
:1038600010923B01CF91DF91FF91EF91BF91AF910A
:103870009F918F917F916F915F914F913F912F9188
:103880000F900FBE0F901F901895DF93CF93CDB779
:10389000DEB729970FB6F894DEBF0FBECDBF898380
:1038A0006A834B838981282F30E039872887888570
:1038B00099858730910509F46BC1288539852830B1
:1038C00031054CF5888599858330910509F4C7C089
:1038D00028853985243031058CF488859985813097
:1038E000910509F47CC028853985223031050CF01A
:1038F00096C0888599850097C9F150C22885398579
:103900002530310509F404C18885998586309105F3
:103910000CF01EC1C4C0288539852B30310509F44F
:10392000AEC1888599858C3091056CF428853985E0
:103930002930310509F469C1888599858A30910556
:103940000CF080C145C1288539852E30310509F438
:10395000ECC1888599858F30910509F403C22885CB
:1039600039852C30310509F4A7C118C2AFE4B0E0A5
:10397000EFE4F0E080818E7F8C93AFE4B0E0EFE481
:10398000F0E080818D7F8C93AEE4B0E0EEE4F0E077
:103990008081877F8C93AEE4B0E0EEE4F0E080813C
:1039A0008F7E8C93A9E5B0E0E9E5F0E0808184604A
:1039B0008C93A9E5B0E0E9E5F0E08081877F8C9306
:1039C000A9E5B0E0E9E5F0E080818F7E8C93A9E580
:1039D000B0E0E9E5F0E080818F7D8C93DFC1AFE45A
:1039E000B0E0EFE4F0E0808181608C93AFE4B0E080
:1039F000EFE4F0E080818D7F8C93AEE4B0E0EEE404
:103A0000F0E08081877F8C93AEE4B0E0EEE4F0E0FC
:103A100080818F7E8C9381E080934301BFC1AFE4AE
:103A2000B0E0EFE4F0E080818E7F8C93AFE4B0E013
:103A3000EFE4F0E0808182608C93AEE4B0E0EEE4ED
:103A4000F0E08081877F8C93AEE4B0E0EEE4F0E0BC
:103A500080818F7E8C9382E0809343019FC1AFE48D
:103A6000B0E0EFE4F0E0808181608C93AFE4B0E0FF
:103A7000EFE4F0E0808182608C93AEE4B0E0EEE4AD
:103A8000F0E08081877F8C93AEE4B0E0EEE4F0E07C
:103A900080818F7E8C9383E0809343017FC1AFE46C
:103AA000B0E0EFE4F0E080818E7F8C93AFE4B0E093
:103AB000EFE4F0E080818D7F8C93AEE4B0E0EEE443
:103AC000F0E0808188608C93AEE4B0E0EEE4F0E05A
:103AD00080818F7E8C93A9E5B0E0E9E5F0E08081FC
:103AE0008B7F8C93A9E5B0E0E9E5F0E08081877FEA
:103AF0008C93A9E5B0E0E9E5F0E0808180618C93EA
:103B0000A9E5B0E0E9E5F0E080818F7D8C9346C1C6
:103B1000AFE4B0E0EFE4F0E0808181608C93AFE44B
:103B2000B0E0EFE4F0E080818D7F8C93AEE4B0E014
:103B3000EEE4F0E0808188608C93AEE4B0E0EEE4E7
:103B4000F0E080818F7E8C9385E08093430126C1D5
:103B5000AFE4B0E0EFE4F0E080818E7F8C93AFE4DF
:103B6000B0E0EFE4F0E0808182608C93AEE4B0E0FE
:103B7000EEE4F0E0808188608C93AEE4B0E0EEE4A7
:103B8000F0E080818F7E8C9386E08093430106C1B4
:103B9000AFE4B0E0EFE4F0E0808181608C93AFE4CB
:103BA000B0E0EFE4F0E0808182608C93AEE4B0E0BE
:103BB000EEE4F0E0808188608C93AEE4B0E0EEE467
:103BC000F0E080818F7E8C9387E080934301E6C094
:103BD000AFE4B0E0EFE4F0E080818E7F8C93AFE45F
:103BE000B0E0EFE4F0E080818D7F8C93AEE4B0E054
:103BF000EEE4F0E08081877F8C93AEE4B0E0EEE409
:103C0000F0E0808180618C93C9C0AFE4B0E0EFE464
:103C1000F0E0808181608C93AFE4B0E0EFE4F0E00D
:103C200080818D7F8C93AEE4B0E0EEE4F0E08081A3
:103C3000877F8C93AEE4B0E0EEE4F0E080818061B9
:103C40008C93ACC0AFE4B0E0EFE4F0E080818E7F15
:103C50008C93AFE4B0E0EFE4F0E0808182608C937D
:103C6000AEE4B0E0EEE4F0E08081877F8C93AEE4D8
:103C7000B0E0EEE4F0E0808180618C938FC0AFE42F
:103C8000B0E0EFE4F0E0808181608C93AFE4B0E0DD
:103C9000EFE4F0E0808182608C93AEE4B0E0EEE48B
:103CA000F0E08081877F8C93AEE4B0E0EEE4F0E05A
:103CB000808180618C9372C0AFE4B0E0EFE4F0E00B
:103CC00080818E7F8C93AFE4B0E0EFE4F0E0808100
:103CD00082608C93AEE4B0E0EEE4F0E08081886036
:103CE0008C93AEE4B0E0EEE4F0E080818F7E8C93C4
:103CF000A9E5B0E0E9E5F0E080818B7F8C93A9E550
:103D0000B0E0E9E5F0E0808188608C93A9E5B0E05F
:103D1000E9E5F0E0808180618C93A9E5B0E0E9E518
:103D2000F0E080818F7D8C9339C0AFE4B0E0EFE4A8
:103D3000F0E080818E7F8C93AFE4B0E0EFE4F0E0C0
:103D4000808182608C93AEE4B0E0EEE4F0E08081AC
:103D500088608C93AEE4B0E0EEE4F0E080818061B6
:103D60008C931CC0AFE4B0E0EFE4F0E080818160B0
:103D70008C93AFE4B0E0EFE4F0E0808182608C935C
:103D8000AEE4B0E0EEE4F0E0808188608C93AEE4D5
:103D9000B0E0EEE4F0E0808180618C938A81282F8E
:103DA00030E03F832E838E819F818130910521F108
:103DB0002E813F81223031052CF48E819F81009726
:103DC00061F046C02E813F812230310521F18E8184
:103DD0009F818330910571F13BC0AFE4B0E0EFE427
:103DE000F0E080818F7B8C93AFE4B0E0EFE4F0E013
:103DF00080818F778C932CC0AFE4B0E0EFE4F0E0EB
:103E0000808180648C93AFE4B0E0EFE4F0E08081E7
:103E10008F778C931DC0AFE4B0E0EFE4F0E08081D9
:103E20008F7B8C93AFE4B0E0EFE4F0E080818068BA
:103E30008C930EC0AFE4B0E0EFE4F0E080818064EA
:103E40008C93AFE4B0E0EFE4F0E0808180688C9385
:103E50008B81282F30E03D832C838C819D818130A4
:103E6000910521F12C813D81223031052CF48C818A
:103E70009D81009761F046C02C813D812230310543
:103E800021F18C819D818330910571F13BC0AFE4BC
:103E9000B0E0EFE4F0E080818F7E8C93AFE4B0E09F
:103EA000EFE4F0E080818F7D8C932CC0AFE4B0E034
:103EB000EFE4F0E0808180618C93AFE4B0E0EFE468
:103EC000F0E080818F7D8C931DC0AFE4B0E0EFE423
:103ED000F0E080818F7E8C93AFE4B0E0EFE4F0E01F
:103EE000808180628C930EC0AFE4B0E0EFE4F0E03C
:103EF000808180618C93AFE4B0E0EFE4F0E08081FA
:103F000080628C93AEE4B0E0EEE4F0E080818E7FDE
:103F10008C93AEE4B0E0EEE4F0E0808182608C93BC
:103F2000AEE4B0E0EEE4F0E080818B7F8C932996E4
:103F30000FB6F894DEBF0FBECDBFCF91DF910895CD
:103F4000DF93CF9300D000D00F92CDB7DEB78B8335
:103F500080914301282F30E03D832C834C815D818B
:103F60004330510509F45BC08C819D8184309105FB
:103F70005CF42C813D8121303105C9F04C815D819B
:103F80004230510581F1ABC08C819D818630910515
:103F900009F475C02C813D812730310509F484C0B6
:103FA0004C815D814530510509F455C098C08B8125
:103FB000282F30E08EEF91E0AC01249FC001259FB7
:103FC000900D349F900D112424E630E0B9010E9439
:103FD0008D31CB019A838983EAE4F0E089819A816B
:103FE000918380837CC08B81282F30E08EEF93E01B
:103FF000AC01249FC001259F900D349F900D11248A
:1040000024E630E0B9010E948D31CB019A83898387
:10401000EAE4F0E089819A819183808360C08B819A
:10402000282F30E08EEF97E0AC01249FC001259F40
:10403000900D349F900D112424E630E0B9010E94C8
:104040008D31CB019A838983EAE4F0E089819A81FA
:104050009183808344C08B81882F90E0982F88279C
:1040600024E630E0B9010E94A131CB019A83898313
:10407000EAE4F0E089819A819183808330C08B816A
:10408000882F90E0982F8827990F24E630E0B90117
:104090000E94A131CB019A838983EAE4F0E089810F
:1040A0009A81918380831BC08B81282F30E08FEF12
:1040B00093E0AC01249FC001259F900D349F900D8B
:1040C000112424E630E0B9010E948D31CB019A839E
:1040D0008983EAE4F0E089819A81918380830F905B
:1040E0000F900F900F900F90CF91DF910895DF9375
:1040F000CF9300D000D00F92CDB7DEB78B838091E5
:104100004301282F30E03D832C834C815D81433077
:10411000510509F45BC08C819D81843091055CF46C
:104120002C813D8121303105C9F04C815D814230C7
:10413000510581F1ABC08C819D818630910509F4D8
:1041400075C02C813D812730310509F484C04C8134
:104150005D814530510509F455C098C08B81282FE9
:1041600030E08EEF91E0AC01249FC001259F900DBF
:10417000349F900D112424E630E0B9010E948D3166
:10418000CB019A838983E8E4F0E089819A81918365
:1041900080837CC08B81282F30E08EEF93E0AC01D0
:1041A000249FC001259F900D349F900D112424E67B
:1041B00030E0B9010E948D31CB019A838983E8E414
:1041C000F0E089819A819183808360C08B81282F60
:1041D00030E08EEF97E0AC01249FC001259F900D49
:1041E000349F900D112424E630E0B9010E948D31F6
:1041F000CB019A838983E8E4F0E089819A819183F5
:10420000808344C08B81882F90E0982F882724E6F4
:1042100030E0B9010E94A131CB019A838983E8E49F
:10422000F0E089819A819183808330C08B81882FCF
:1042300090E0982F8827990F24E630E0B9010E947A
:10424000A131CB019A838983E8E4F0E089819A81E6
:10425000918380831BC08B81282F30E08FEF93E008
:10426000AC01249FC001259F900D349F900D112417
:1042700024E630E0B9010E948D31CB019A83898315
:10428000E8E4F0E089819A81918380830F900F9018
:104290000F900F900F90CF91DF910895DF93CF9300
:1042A00000D0CDB7DEB79A838983EBE4F0E0898153
:1042B0009A81892F99278083EAE4F0E089818083BD
:1042C0000F900F90CF91DF910895DF93CF9300D09F
:1042D000CDB7DEB79A838983E9E4F0E089819A81DA
:1042E000892F99278083E8E4F0E0898180830F900B
:1042F0000F90CF91DF910895DF93CF9300D0CDB78A
:10430000DEB79A838983E7E4F0E089819A81892F77
:1043100099278083E6E4F0E0898180830F900F90F5
:10432000CF91DF910895DF93CF93CDB7DEB7AEE4A1
:10433000B0E0EEE4F0E0808180648C93A9E5B0E029
:10434000E9E5F0E0808180628C93AEE4B0E0EEE4D9
:10435000F0E080818E7F8C93AEE4B0E0EEE4F0E09C
:10436000808182608C93AEE4B0E0EEE4F0E0808186
:104370008B7F8C93CF91DF910895DF93CF930F9232
:10438000CDB7DEB789838981813041F4AEE4B0E0F6
:10439000EEE4F0E0808180648C930AC089818823F8
:1043A00039F4AEE4B0E0EEE4F0E080818F7B8C93F2
:1043B0000F90CF91DF910895DF93CF93CDB7DEB704
:1043C000E6E4F0E080819181CF91DF910895DF9361
:1043D000CF9300D0CDB7DEB79A83898389819A8144
:1043E00090934201809341010F900F90CF91DF9104
:1043F0000895DF93CF93CDB7DEB7ECE4F0E0118200
:104400001082CF91DF9108951F920F920FB60F92F5
:1044100011242F933F934F935F936F937F938F93C9
:104420009F93AF93BF93EF93FF93DF93CF93CDB75A
:10443000DEB78091410190914201009729F0E0910F
:104440004101F09142010995CF91DF91FF91EF91E8
:10445000BF91AF919F918F917F916F915F914F919C
:104460003F912F910F900FBE0F901F9018950F93B3
:104470001F93DF93CF93CDB7DEB7C450D1400FB6B3
:10448000F894DEBF0FBECDBFFE01E050FF4F10829B
:10449000FE01E150FF4F8FEF8083FE01E250FF4F9E
:1044A00083E080830E9412110E94C7180E9428197D
:1044B0008DEE90E30E9444190E9483196AE570E032
:1044C00080E090E00E94B2196AE570E080E090E040
:1044D0000E940D1A0E94FD0E0E94B3160E949716AC
:1044E00080E060E00E94DD0F80E290E00E947B1699
:1044F0008F3F09F001C180E690E00E94B40FFE01F9
:10450000E350FF4F1082ECC00E94F616FE01E1500E
:10451000FF4F8083FE01E150FF4F80818F3FA1F369
:10452000FE01E350FF4F81E060810E94DD0FFE013C
:10453000E150FF4F80810E94A60AFE01E750FF4F25
:1045400080E090E0AAEFB3E480839183A283B383F9
:104550008E010B501F4FFE01E750FF4F60817181AC
:104560008281938120E030E04AEF54E40E941F02F0
:10457000DC01CB01F80180839183A283B383FE0128
:10458000EB50FF4F608171818281938120E030E0A8
:1045900040E85FE30E942504882344F4FE01ED50C7
:1045A000FF4F81E090E09183808364C0FE01EB5077
:1045B000FF4F608171818281938120E03FEF4FE75F
:1045C00057E40E94C50318160CF043C0FE01E750E3
:1045D000FF4F608171818281938120E030E040E271
:1045E00051E40E941F02DC01CB018E010D501F4FD0
:1045F000BC01CD010E944900DC01CB01F80191838F
:1046000080831FC0FE01EF50FF4F88EC90E0918344
:104610008083FE01EF50FF4F808191810197F1F778
:10462000FE01EF50FF4F91838083DE01AD50BF4FFD
:10463000FE01ED50FF4F80819181019711969C936F
:104640008E93FE01ED50FF4F808191810097D1F64E
:1046500027C08E010D501F4FFE01EB50FF4F6081B0
:104660007181828193810E944900DC01CB01F801B4
:1046700091838083DE01A151BF4FFE01ED50FF4FBA
:10468000808191818D939C93FE01E151FF4F808148
:1046900091810197F1F7FE01E151FF4F91838083F2
:1046A000FE01E350FF4F81E060810E94DD0F8AE24E
:1046B0000E94A60AFE01E350FF4F8081882F90E000
:1046C0008196FE01E150FF4F60810E944716DE0196
:1046D000A350BF4FFE01E350FF4F80818F5F8C934B
:1046E000FE01E350FF4F8081843008F40DCF80E25B
:1046F00090E060E00E9447160E94081180E062E0AE
:104700000E94DD0F8EE690E00E94B40FFE01E5519D
:10471000FF4F80E090E0AAE7B4E480839183A28316
:10472000B3838E0109511F4FFE01E551FF4F608198
:1047300071818281938120E030E04AEF54E40E944D
:104740001F02DC01CB01F80180839183A283B38334
:10475000FE01E951FF4F608171818281938120E0E8
:1047600030E040E85FE30E942504882344F4FE0122
:10477000EB51FF4F81E090E09183808365C0FE01A3
:10478000E951FF4F608171818281938120E03FEF89
:104790004FE757E40E94C50318160CF044C0FE0111
:1047A000E551FF4F608171818281938120E030E08B
:1047B00040E251E40E941F02DC01CB018E010B514B
:1047C0001F4FBC01CD010E944900DC01CB01F80163
:1047D000918380831FC0FE01ED51FF4F88EC90E074
:1047E00091838083FE01ED51FF4F8081918101977C
:1047F000F1F7FE01ED51FF4F91838083DE01AB5154
:10480000BF4FFE01EB51FF4F8081918101971196BF
:104810009C938E93FE01EB51FF4F80819181009715
:10482000D1F60C94E4308E010B511F4FFE01E9517B
:10483000FF4F60817181828193810E944900DC0178
:10484000CB01F80191838083DE01AF51BF4FFE01A0
:10485000EB51FF4F8081918111969C938E93FE01C5
:10486000EF51FF4F808191810197F1F7FE01EF51E8
:10487000FF4F918380830C94E4300E94081180E004
:1048800062E00E94DD0F8BE790E00E94B40FFE0112
:10489000E352FF4F80E090E0A8ECB2E48083918384
:1048A000A283B3838E0107521F4FFE01E352FF4FD5
:1048B000608171818281938120E030E04AEF54E48D
:1048C0000E941F02DC01CB01F80180839183A28347
:1048D000B383FE01E752FF4F608171818281938132
:1048E00020E030E040E85FE30E942504882344F4A0
:1048F000FE01E952FF4F81E090E09183808364C024
:10490000FE01E752FF4F608171818281938120E037
:104910003FEF4FE757E40E94C50318160CF043C061
:10492000FE01E352FF4F608171818281938120E01B
:1049300030E040E251E40E941F02DC01CB018E0115
:1049400009521F4FBC01CD010E944900DC01CB017F
:10495000F801918380831FC0FE01EB52FF4F88EC6A
:1049600090E091838083FE01EB52FF4F8081918123
:104970000197F1F7FE01EB52FF4F91838083DE0137
:10498000A952BF4FFE01E952FF4F808191810197EB
:1049900011969C938E93FE01E952FF4F8081918185
:1049A0000097D1F627C08E0109521F4FFE01E75232
:1049B000FF4F60817181828193810E944900DC01F7
:1049C000CB01F80191838083DE01AD52BF4FFE0120
:1049D000E952FF4F808191818D939C93FE01ED52AE
:1049E000FF4F808191810197F1F7FE01ED52FF4F5A
:1049F000918380830E940811FE01E150FF4F8FEFE9
:104A0000808388E890E00E94B40F81E060E00E941B
:104A1000DD0F85E990E00E94B40F0E94F616FE01BA
:104A2000E150FF4F8083FE01E150FF4F80818F3FB7
:104A3000A1F3FE01E153FF4F80E090E0AAEFB3E461
:104A400080839183A283B3838E0105531F4FFE01A0
:104A5000E153FF4F608171818281938120E030E0DA
:104A60004AEF54E40E941F02DC01CB01F80180836D
:104A70009183A283B383FE01E553FF4F608171816F
:104A80008281938120E030E040E85FE30E942504CA
:104A9000882344F4FE01E753FF4F81E090E09183C7
:104AA000808364C0FE01E553FF4F60817181828184
:104AB000938120E03FEF4FE757E40E94C5031816AB
:104AC0000CF043C0FE01E153FF4F60817181828190
:104AD000938120E030E040E251E40E941F02DC01BB
:104AE000CB018E0107531F4FBC01CD010E9449002D
:104AF000DC01CB01F801918380831FC0FE01E953E3
:104B0000FF4F88EC90E091838083FE01E953FF4FD3
:104B1000808191810197F1F7FE01E953FF4F918365
:104B20008083DE01A753BF4FFE01E753FF4F808113
:104B30009181019711969C938E93FE01E753FF4F4D
:104B4000808191810097D1F628C08E0107531F4FB5
:104B5000FE01E553FF4F60817181828193810E9444
:104B60004900DC01CB01F80191838083DE01AB5366
:104B7000BF4FFE01E753FF4F8081918111969C93B7
:104B80008E93FE01EB53FF4F808191810197F1F7E6
:104B9000FE01EB53FF4F91838083FE01E150FF4FF5
:104BA0008081813309F002C70E94081183EA90E0F6
:104BB0000E94B40FFE01E350FF4F1082BCC1FE0102
:104BC000E350FF4F81E060810E94DD0F8EE00E9484
:104BD0004F06FE01EF53FF4F80E090E0A8ECB2E4F7
:104BE00080839183A283B3838E0103541F4FFE0100
:104BF000EF53FF4F608171818281938120E030E02B
:104C00004AEF54E40E941F02DC01CB01F8018083CB
:104C10009183A283B383FE01E354FF4F60817181CE
:104C20008281938120E030E040E85FE30E94250428
:104C3000882344F4FE01E554FF4F81E090E0918326
:104C4000808364C0FE01E354FF4F608171818281E3
:104C5000938120E03FEF4FE757E40E94C503181609
:104C60000CF043C0FE01EF53FF4F608171818281E0
:104C7000938120E030E040E251E40E941F02DC0119
:104C8000CB018E0105541F4FBC01CD010E9449008C
:104C9000DC01CB01F801918380831FC0FE01E75442
:104CA000FF4F88EC90E091838083FE01E754FF4F33
:104CB000808191810197F1F7FE01E754FF4F9183C5
:104CC0008083DE01A554BF4FFE01E554FF4F808174
:104CD0009181019711969C938E93FE01E554FF4FAD
:104CE000808191810097D1F627C08E0105541F4F16
:104CF000FE01E354FF4F60817181828193810E94A4
:104D00004900DC01CB01F80191838083DE01A954C5
:104D1000BF4FFE01E554FF4F808191818D939C939D
:104D2000FE01E954FF4F808191810197F1F7FE0167
:104D3000E954FF4F918380838CE00E944F06FE016F
:104D4000E350FF4F8081082F10E00E94F616282FB5
:104D5000CE018F5F9E4FFC01E00FF11F2083FE010B
:104D6000E350FF4F8081282F30E0CE018F5F9E4FB0
:104D7000FC01E20FF31F80818F3F09F420CFFE0179
:104D8000E350FF4F81E060810E94DD0FFE01E350A0
:104D9000FF4F8081282F30E0CE018F5F9E4FFC01B6
:104DA000E20FF31F80810E94A60AFE01ED54FF4F1F
:104DB00080E090E0AAEFB3E480839183A283B38381
:104DC0008E0101551F4FFE01ED54FF4F608171812F
:104DD0008281938120E030E04AEF54E40E941F0278
:104DE000DC01CB01F80180839183A283B383FE01B0
:104DF000E155FF4F608171818281938120E030E035
:104E000040E85FE30E942504882344F4FE01E35553
:104E1000FF4F81E090E09183808364C0FE01E15503
:104E2000FF4F608171818281938120E03FEF4FE7E6
:104E300057E40E94C50318160CF043C0FE01ED5460
:104E4000FF4F608171818281938120E030E040E2F8
:104E500051E40E941F02DC01CB018E0103551F4F5C
:104E6000BC01CD010E944900DC01CB01F801918316
:104E700080831FC0FE01E555FF4F88EC90E09183D1
:104E80008083FE01E555FF4F808191810197F1F705
:104E9000FE01E555FF4F91838083DE01A355BF4F8F
:104EA000FE01E355FF4F80819181019711969C93FC
:104EB0008E93FE01E355FF4F808191810097D1F6DB
:104EC00027C08E0103551F4FFE01E155FF4F608142
:104ED0007181828193810E944900DC01CB01F8013C
:104EE00091838083DE01A755BF4FFE01E355FF4F3D
:104EF000808191818D939C93FE01E755FF4F8081C6
:104F000091810197F1F7FE01E755FF4F918380836F
:104F1000FE01E350FF4F81E060810E94DD0F8AE2D5
:104F20000E94A60ADE01A350BF4FFE01E350FF4FCF
:104F300080818F5F8C93FE01E350FF4F808184302E
:104F400008F43DCE81E290E00E947B16FE01EF5F07
:104F5000FE4F9081891709F012C182E290E00E9411
:104F60007B16FE01EF5FFE4F9181891709F007C1A3
:104F700083E290E00E947B16FE01EF5FFE4F92817C
:104F8000891709F0FCC084E290E00E947B16FE01C4
:104F9000EF5FFE4F9381891709F0F1C00E9408115D
:104FA00080E062E00E94DD0F83EB90E00E94B40F8E
:104FB00083E060E041E00E94741383E061E040E040
:104FC0000E94741360E070E080E090E00E94B219EB
:104FD00060E070E080E090E00E940D1AFE01EB5569
:104FE000FF4F80E090E0AAE7B5E480839183A2833D
:104FF000B3838E010F551F4FFE01EB55FF4F6081AC
:1050000071818281938120E030E04AEF54E40E9474
:105010001F02DC01CB01F80180839183A283B3835B
:10502000FE01EF55FF4F608171818281938120E005
:1050300030E040E85FE30E942504882344F4FE0149
:10504000E156FF4F81E090E09183808364C0FE01D0
:10505000EF55FF4F608171818281938120E03FEFA6
:105060004FE757E40E94C50318160CF043C0FE0139
:10507000EB55FF4F608171818281938120E030E0A8
:1050800040E251E40E941F02DC01CB018E01015677
:105090001F4FBC01CD010E944900DC01CB01F8018A
:1050A000918380831FC0FE01E356FF4F88EC90E0A0
:1050B00091838083FE01E356FF4F808191810197A8
:1050C000F1F7FE01E356FF4F91838083DE01A15685
:1050D000BF4FFE01E156FF4F8081918101971196EC
:1050E0009C938E93FE01E156FF4F80819181009742
:1050F000D1F627C08E0101561F4FFE01EF55FF4F1D
:1051000060817181828193810E944900DC01CB0121
:10511000F80191838083DE01A556BF4FFE01E15661
:10512000FF4F808191818D939C93FE01E556FF4F47
:10513000808191810197F1F7FE01E556FF4F918340
:1051400080836AE570E080E090E00E94B2196AE531
:1051500070E080E090E00E940D1A83E060E040E0A3
:105160000E94741383E061E041E00E9474130E9486
:105170000811FE01E050FF4F10820C94E43081E2F0
:1051800090E00E947B16FE01EF5FFE4F938189172E
:1051900009F0F9C082E290E00E947B16FE01EF5F09
:1051A000FE4F9281891709F0EEC083E290E00E94E1
:1051B0007B16FE01EF5FFE4F9181891709F0E3C076
:1051C00084E290E00E947B16FE01EF5FFE4F90812B
:1051D000891709F0D8C00E94081180E061E00E94A0
:1051E000DD0F80EC90E00E94B40F83E061E040E0CE
:1051F0000E94741383E062E041E00E947413FE0198
:10520000E956FF4F80E090E4ACE9B5E480839183F8
:10521000A283B3838E010D561F4FFE01E956FF4F47
:10522000608171818281938120E030E04AEF54E413
:105230000E941F02DC01CB01F80180839183A283CD
:10524000B383FE01ED56FF4F6081718182819381AE
:1052500020E030E040E85FE30E942504882344F426
:10526000FE01EF56FF4F81E090E09183808364C0A0
:10527000FE01ED56FF4F608171818281938120E0B4
:105280003FEF4FE757E40E94C50318160CF043C0E8
:10529000FE01E956FF4F608171818281938120E098
:1052A00030E040E251E40E941F02DC01CB018E019C
:1052B0000F561F4FBC01CD010E944900DC01CB01FC
:1052C000F801918380831FC0FE01E157FF4F88ECF6
:1052D00090E091838083FE01E157FF4F80819181AF
:1052E0000197F1F7FE01E157FF4F91838083DE01C3
:1052F000AF56BF4FFE01EF56FF4F8081918101975E
:1053000011969C938E93FE01EF56FF4F8081918101
:105310000097D1F627C08E010F561F4FFE01ED56A4
:10532000FF4F60817181828193810E944900DC017D
:10533000CB01F80191838083DE01A357BF4FFE01AB
:10534000EF56FF4F808191818D939C93FE01E3572F
:10535000FF4F808191810197F1F7FE01E357FF4FE5
:105360009183808383E061E041E00E94741383E0D5
:1053700062E040E00E9474130E940811FE01E050B8
:10538000FF4F108221C7DE01A250BF4FFE01E25045
:10539000FF4F808181508C93FE01E250FF4F80814E
:1053A000882309F47FC10E94081180E061E00E9417
:1053B000DD0F8FEC90E00E94B40FFE01E757FF4F26
:1053C00080E090E0AAE7B4E480839183A283B38372
:1053D0008E010B571F4FFE01E757FF4F6081718110
:1053E0008281938120E030E04AEF54E40E941F0262
:1053F000DC01CB01F80180839183A283B383FE019A
:10540000EB57FF4F608171818281938120E030E012
:1054100040E85FE30E942504882344F4FE01ED5731
:10542000FF4F81E090E09183808364C0FE01EB57E1
:10543000FF4F608171818281938120E03FEF4FE7D0
:1054400057E40E94C50318160CF043C0FE01E7574D
:10545000FF4F608171818281938120E030E040E2E2
:1054600051E40E941F02DC01CB018E010D571F4F3A
:10547000BC01CD010E944900DC01CB01F801918300
:1054800080831FC0FE01EF57FF4F88EC90E09183AF
:105490008083FE01EF57FF4F808191810197F1F7E3
:1054A000FE01EF57FF4F91838083DE01AD57BF4F61
:1054B000FE01ED57FF4F80819181019711969C93DA
:1054C0008E93FE01ED57FF4F808191810097D1F6B9
:1054D00027C08E010D571F4FFE01EB57FF4F608114
:1054E0007181828193810E944900DC01CB01F80126
:1054F00091838083DE01A158BF4FFE01ED57FF4F1E
:10550000808191818D939C93FE01E158FF4F8081B2
:1055100091810197F1F7FE01E158FF4F918380835C
:105520000E9408118EED90E00E94B40FFE01E2503F
:10553000FF4F8081805D0E94A60AFE01E558FF4F63
:1055400080E090E0AAE7B4E480839183A283B383F0
:105550008E0109581F4FFE01E558FF4F6081718190
:105560008281938120E030E04AEF54E40E941F02E0
:10557000DC01CB01F80180839183A283B383FE0118
:10558000E958FF4F608171818281938120E030E092
:1055900040E85FE30E942504882344F4FE01EB58B1
:1055A000FF4F81E090E09183808364C0FE01E95861
:1055B000FF4F608171818281938120E03FEF4FE74F
:1055C00057E40E94C50318160CF043C0FE01E558CD
:1055D000FF4F608171818281938120E030E040E261
:1055E00051E40E941F02DC01CB018E010B581F4FBA
:1055F000BC01CD010E944900DC01CB01F80191837F
:1056000080831FC0FE01ED58FF4F88EC90E091832E
:105610008083FE01ED58FF4F808191810197F1F762
:10562000FE01ED58FF4F91838083DE01AB58BF4FE1
:10563000FE01EB58FF4F80819181019711969C9359
:105640008E93FE01EB58FF4F808191810097D1F638
:10565000BBC58E010B581F4FFE01E958FF4F6081FB
:105660007181828193810E944900DC01CB01F801A4
:1056700091838083DE01AF58BF4FFE01EB58FF4F8F
:105680008081918111969C938E93FE01EF58FF4F7C
:10569000808191810197F1F7FE01EF58FF4F9183CF
:1056A000808392C5FE01E359FF4F80E090E0AAEFAE
:1056B000B3E480839183A283B3838E0107591F4F84
:1056C000FE01E359FF4F608171818281938120E067
:1056D00030E04AEF54E40E941F02DC01CB01F801E4
:1056E00080839183A283B383FE01E759FF4F6081DA
:1056F00071818281938120E030E040E85FE30E9485
:105700002504882344F4FE01E959FF4F81E090E02D
:105710009183808364C0FE01E759FF4F60817181EE
:105720008281938120E03FEF4FE757E40E94C50359
:1057300018160CF043C0FE01E359FF4F60817181E0
:105740008281938120E030E040E251E40E941F0218
:10575000DC01CB018E0109591F4FBC01CD010E9414
:105760004900DC01CB01F801918380831FC0FE0159
:10577000EB59FF4F88EC90E091838083FE01EB5959
:10578000FF4F808191810197F1F7FE01EB59FF4FA7
:1057900091838083DE01A959BF4FFE01E959FF4F74
:1057A00080819181019711969C938E93FE01E95916
:1057B000FF4F808191810097D1F627C08E01095952
:1057C0001F4FFE01E759FF4F6081718182819381F4
:1057D0000E944900DC01CB01F80191838083DE0146
:1057E000AD59BF4FFE01E959FF4F808191818D93E3
:1057F0009C93FE01ED59FF4F808191810197F1F754
:10580000FE01ED59FF4F918380830E94081180E0D3
:1058100062E00E94DD0F8AEE90E00E94B40F83E008
:1058200063E041E00E947413FE01E15AFF4F80E003
:1058300090E4ACE1B6E480839183A283B3838E01CC
:10584000055A1F4FFE01E15AFF4F6081718182812D
:10585000938120E030E04AEF54E40E941F02DC0113
:10586000CB01F80180839183A283B383FE01E55AC3
:10587000FF4F608171818281938120E030E040E8B8
:105880005FE30E942504882344F4FE01E75AFF4F9A
:1058900081E090E09183808364C0FE01E55AFF4F70
:1058A000608171818281938120E03FEF4FE757E46F
:1058B0000E94C50318160CF043C0FE01E15AFF4FC9
:1058C000608171818281938120E030E040E251E487
:1058D0000E941F02DC01CB018E01075A1F4FBC0141
:1058E000CD010E944900DC01CB01F8019183808346
:1058F0001FC0FE01E95AFF4F88EC90E0918380833E
:10590000FE01E95AFF4F808191810197F1F7FE0175
:10591000E95AFF4F91838083DE01A75ABF4FFE01F2
:10592000E75AFF4F80819181019711969C938E9346
:10593000FE01E75AFF4F808191810097D1F627C081
:105940008E01075A1F4FFE01E55AFF4F608171819A
:10595000828193810E944900DC01CB01F80191838F
:105960008083DE01AB5ABF4FFE01E75AFF4F8081B3
:1059700091818D939C93FE01EB5AFF4F8081918121
:105980000197F1F7FE01EB5AFF4F9183808383E08B
:1059900063E040E00E947413FE01E250FF4F83E099
:1059A0008083FE01E050FF4F10820EC4FE01E150E3
:1059B000FF4F8081823309F08FC30E94081188EF66
:1059C00090E00E94B40FFE01E350FF4F10828EC1A1
:1059D000FE01E350FF4F81E060810E94DD0F8EE009
:1059E0000E944F06FE01EF5AFF4F80E090E0A8ECC6
:1059F000B2E480839183A283B3838E01035B1F4F44
:105A0000FE01EF5AFF4F608171818281938120E016
:105A100030E04AEF54E40E941F02DC01CB01F801A0
:105A200080839183A283B383FE01E35BFF4F608198
:105A300071818281938120E030E040E85FE30E9441
:105A40002504882344F4FE01E55BFF4F81E090E0EC
:105A50009183808364C0FE01E35BFF4F60817181AD
:105A60008281938120E03FEF4FE757E40E94C50316
:105A700018160CF043C0FE01EF5AFF4F6081718190
:105A80008281938120E030E040E251E40E941F02D5
:105A9000DC01CB018E01055B1F4FBC01CD010E94D3
:105AA0004900DC01CB01F801918380831FC0FE0116
:105AB000E75BFF4F88EC90E091838083FE01E75B1A
:105AC000FF4F808191810197F1F7FE01E75BFF4F66
:105AD00091838083DE01A55BBF4FFE01E55BFF4F35
