:100000000C942A000C9447000C9447000C94470071
:100010000C94DC0C0C94960C0C94FD0E0C94470084
:100020000C9447000C9447000C94470B0C94470029
:100030000C9447000C9447000C9447000C94470024
:100040000C9447000C9447000C9447000C94470014
:100050000C94470011241FBECFE5D4E0DEBFCDBF16
:1000600011E0A0E6B0E0E6E1F6E202C005900D92F4
:10007000A633B107D9F711E0A6E3B1E001C01D92A4
:10008000A336B107E1F70E94760F0C9409130C9484
:100090000000EF92FF920F931F937B018C0120E0F1
:1000A00030E040E05FE40E94C50388238CF0C80183
:1000B000B70120E030E040E05FE40E94C1010E940F
:1000C000F5039B01AC01205030404040504806C031
:1000D000C801B7010E94F5039B01AC01B901CA0137
:1000E0001F910F91FF90EF900895A0E0B0E0EBE733
:1000F000F0E00C94A112DC012B01FA019C919230EA
:1001000008F439C1EB018881823008F433C194309E
:1001100069F4843009F02FC111969C91119789815F
:10012000981709F428C1ADE2B1E025C1843009F483
:1001300021C18230A9F4923009F01DC19A01AD01AC
:1001400088E0EA010990AE01E90109929E0181501F
:10015000C1F7E201898111969C918923818308C1AD
:10016000923009F407C112962D903C901397EB0141
:100170008A819B811496AD90BD90CD90DC901797AD
:10018000EC80FD800E811F819101281B390BB90184
:1001900037FF04C066277727621B730B6032710537
:1001A0000CF061C0121613066CF537014801062EDB
:1001B00004C096948794779467940A94D2F721E0C8
:1001C00030E040E050E004C0220F331F441F551FB1
:1001D0006A95D2F721503040404050402E213F21B7
:1001E00040235123211531054105510521F021E01E
:1001F00030E040E050E079018A01E628F72808293C
:1002000019293CC0232BD1F1260E371E350146019A
:10021000062E04C096948794779467940A94D2F734
:1002200021E030E040E050E004C0220F331F441FC3
:10023000551F6A95D2F721503040404050402A2146
:100240003B214C215D21211531054105510521F04E
:1002500021E030E040E050E059016A01A628B728CB
:10026000C828D9280BC0821593052CF01C01AA249C
:10027000BB24650103C0EE24FF24870111969C91E5
:10028000D20111968C91981709F445C0992339F041
:10029000A80197012A193B094C095D0906C0A6016E
:1002A00095012E193F09400B510B57FD08C01182D3
:1002B0003382228224833583468357831DC081E0A5
:1002C00081833382228288279927DC01821B930B4A
:1002D000A40BB50B84839583A683B7830DC0220F2F
:1002E000331F441F551F24833583468357838281E0
:1002F000938101979383828324813581468157813D
:10030000DA01C9010197A109B1098F5F9F4FAF4F72
:10031000BF4328F30BC0918333822282EA0CFB1C7B
:100320000C1D1D1DE482F5820683178383E0808304
:10033000248135814681578157FF1AC0C901AA27F8
:1003400097FDA095BA2F81709070A070B0705695EF
:10035000479537952795822B932BA42BB52B848318
:100360009583A683B7838281938101969383828349
:10037000DF0101C0D201CD01CDB7DEB7E2E10C94BF
:10038000BD12A0E2B0E0E7ECF1E00C94AD1269839D
:100390007A838B839C832D833E834F835887E9E048
:1003A000EE2EF12CEC0EFD1ECE010196B7010E943F
:1003B0001E058E010F5E1F4FCE010596B8010E94EB
:1003C0001E058A8991E089278A8BC701B801AE0191
:1003D000475E5F4F0E9475000E944904A096E6E0C8
:1003E0000C94C912A0E2B0E0E8EFF1E00C94AD1279
:1003F00069837A838B839C832D833E834F835887C5
:10040000F9E0EF2EF12CEC0EFD1ECE010196B701A6
:100410000E941E058E010F5E1F4FCE010596B8018A
:100420000E941E05C701B801AE01475E5F4F0E94E2
:1004300075000E944904A096E6E00C94C912A0E25F
:10044000B0E0E5E2F2E00C94A11269837A838B8339
:100450009C832D833E834F835887CE010196BE0136
:10046000675F7F4F0E941E05CE010596BE016F5E3D
:100470007F4F0E941E059985923088F089898230CD
:10048000C8F0943019F4823051F404C0843029F457
:10049000923081F48DE291E0C6C0923049F420E0C0
:1004A0009A858A89981321E02A87CE010996BBC0D4
:1004B000823049F420E09A858A89981321E02A8BBA
:1004C000CE014196B0C02D843E844F8458886D88FB
:1004D0007E888F88988CEE24FF248701AA24BB2471
:1004E000650140E050E060E070E0E0E0F0E0C10174
:1004F00081709070892BE9F0E60CF71C081D191D1E
:100500009A01AB012A0D3B1D4C1D5D1D80E090E062
:10051000A0E0B0E0E614F7040805190520F481E036
:1005200090E0A0E0B0E0BA01A901480F591F6A1F8E
:100530007B1FAA0CBB1CCC1CDD1C97FE08C081E0F5
:1005400090E0A0E0B0E0A82AB92ACA2ADB2A3196B6
:10055000E032F10549F0660C771C881C991C569412
:10056000479437942794C3CFFA85EA892B893C892D
:100570008B859C85280F391F2E5F3F4F17C0CA01FE
:1005800081709070892B61F016950795F794E79428
:1005900080E090E0A0E0B0E8E82AF92A0A2B1B2BC3
:1005A00076956795579547952F5F3F4F77FDE7CF36
:1005B0000CC0440F551F661F771F17FD4160EE0CDE
:1005C000FF1C001F111F21503040403090E05907A0
:1005D00090E0690790E4790760F32B8F3C8FDB0193
:1005E000CA018F779070A070B07080349105A1051A
:1005F000B10561F447FD0AC0E114F10401051105DC
:1006000029F0405C5F4F6F4F7F4F40781A8EFE1786
:1006100011F081E08A8F4D8F5E8F6F8F78A383E01A
:10062000898FCE0149960E944904A096E2E10C947C
:10063000BD12A8E1B0E0EFE1F3E00C94A9126983E8
:100640007A838B839C832D833E834F835887B9E0C5
:10065000EB2EF12CEC0EFD1ECE010196B7010E948F
:100660001E058E010F5E1F4FCE010596B8010E9438
:100670001E052985223008F47EC03989323010F4F5
:10068000B8017CC08A859A8989278A87243011F02D
:10069000223031F4231709F06EC06DE271E06EC0B4
:1006A000343039F41D861E861F86188A1C861B86E8
:1006B00004C0323021F484E08987B7015FC02B8504
:1006C0003C858B899C89281B390B3C872B87ED84C3
:1006D000FE840F851889AD88BE88CF88D88CEA142F
:1006E000FB040C051D0540F4EE0CFF1C001F111F40
:1006F000215030403C872B8720E030E040E050E044
:1007000080E090E0A0E0B0E460E070E0EA14FB0478
:100710000C051D0540F0282B392B4A2B5B2BEA18C2
:10072000FB080C091D09B695A79597958795EE0CC2
:10073000FF1C001F111F6F5F7F4F6F31710531F775
:10074000DA01C9018F779070A070B0708034910584
:10075000A105B10561F427FD0AC0E114F10401050A
:10076000110529F0205C3F4F4F4F5F4F20782D87B8
:100770003E874F87588BBE01675F7F4FCB010E943A
:1007800049046896EAE00C94C512A8E1B0E0EBECED
:10079000F3E00C94AD1269837A838B839C832D8361
:1007A0003E834F83588789E0E82EF12CEC0EFD1E26
:1007B000CE010196B7010E941E058E010F5E1F4FEC
:1007C000CE010596B8010E941E058985823040F051
:1007D0008989823028F0C701B8010E94960501C0BE
:1007E0008FEF6896E6E00C94C912ACE0B0E0EBEF56
:1007F000F3E00C94B11269837A838B839C83CE01DE
:100800000196BE016B5F7F4F0E941E058D81823075
:1008100061F1823050F1843021F48E81882351F1CE
:100820002EC02F81388537FD20C06E812F313105D4
:100830001CF06623F9F023C08EE190E0821B930B3D
:1008400029853A854B855C8504C056954795379533
:1008500027958A95D2F76623B1F05095409530954B
:1008600021953F4F4F4F5F4F0EC020E030E040E0FA
:1008700050E009C02FEF3FEF4FEF5FE704C020E0EB
:1008800030E040E050E8B901CA012C96E2E00C9457
:10089000CD12DF92EF92FF920F931F93FC01E48041
:1008A000F58006811781D1808081823048F480E014
:1008B00090E0A0E1B0E0E82AF92A0A2B1B2BA5C0A2
:1008C000843009F49FC0823021F4EE24FF24870194
:1008D00005C0E114F1040105110519F4E0E0F0E0B0
:1008E00096C0628173819FEF623879070CF05BC01C
:1008F00022E83FEF261B370B2A3131052CF020E090
:1009000030E040E050E02AC0B801A701022E04C048
:1009100076956795579547950A94D2F781E090E0D0
:10092000A0E0B0E004C0880F991FAA1FBB1F2A9542
:10093000D2F70197A109B1098E219F21A023B123EC
:100940000097A105B10521F081E090E0A0E0B0E0C2
:100950009A01AB01282B392B4A2B5B2BDA01C901F9
:100960008F779070A070B07080349105A105B105AB
:1009700039F427FF09C0205C3F4F4F4F5F4F04C041
:10098000215C3F4F4F4F5F4FE0E0F0E02030A0E0B0
:100990003A07A0E04A07A0E45A0710F0E1E0F0E0CF
:1009A00079018A0127C06038710564F5FB01E158BF
:1009B000FF4FD801C7018F779070A070B07080345E
:1009C0009105A105B10539F4E7FE0DC080E490E082
:1009D000A0E0B0E004C08FE390E0A0E0B0E0E80E5B
:1009E000F91E0A1F1B1F17FF05C016950795F794E0
:1009F000E794319687E016950795F794E7948A95E2
:100A0000D1F705C0EE24FF248701EFEFF0E06E2F51
:100A1000679566276795902F9F77D794DD24D794A5
:100A20008E2F8695492F462B582F5D29B701CA0175
:100A30001F910F91FF90EF90DF900895FC01DB0173
:100A4000408151812281622F6F7770E0221F22271F
:100A5000221F9381892F880F822B282F30E0991F26
:100A60009927991F11969C93119721153105A9F586
:100A7000411551056105710511F482E037C082E826
:100A80009FEF13969C938E9312979A01AB0167E0A8
:100A9000220F331F441F551F6A95D1F783E08C93B3
:100AA0000DC0220F331F441F551F12968D919C912C
:100AB0001397019713969C938E931297203080E0A2
:100AC000380780E0480780E4580758F314962D93C0
:100AD0003D934D935C93179708952F3F310579F41B
:100AE000411551056105710519F484E08C93089551
:100AF00064FF03C081E08C9312C01C9210C02F577A
:100B0000304013963C932E93129783E08C9387E0AA
:100B1000440F551F661F771F8A95D1F7706414968E
:100B20004D935D936D937C93179708951F93DC010C
:100B3000FB019C91923008F447C08081823008F418
:100B400043C0943051F411961C91843099F5818101
:100B5000682F70E0611B71093FC0843021F0923032
:100B600031F48230B9F18181882389F12DC0119649
:100B70001C9111978230F1F081811817D9F41296E7
:100B80002D913C911397828193818217930794F062
:100B900028173907BCF014968D919D910D90BC914A
:100BA000A02D2481358146815781281739074A07AE
:100BB0005B0718F4112341F00AC082179307A407BA
:100BC000B50740F4112319F061E070E005C06FEF44
:100BD0007FEF02C060E070E0CB011F910895FF92AB
:100BE0000F931F93F82E82E060E041E00E94E1083D
:100BF00082E061E040E00E94E10800ED17E0C801FA
:100C00000197F1F782E067E041E00E94E108C80146
:100C10000197F1F74F2D4295417081E060E00E940D
:100C2000E1084F2D42954695417081E061E00E94B8
:100C3000E1084F2D429546954695417081E062E06E
:100C40000E94E1084F2D441F4427441F81E063E0C8
:100C50000E94E108C8010197F1F782E067E040E0F7
:100C60000E94E108C8010197F1F782E067E041E0E6
:100C70000E94E108C8010197F1F74F2D417081E012
:100C800060E00E94E1084F2D4695417081E061E0EF
:100C90000E94E108F694F6944F2D417081E062E0E5
:100CA0000E94E108F69481E0F82263E04F2D0E9453
:100CB000E108C8010197F1F782E067E040E00E9497
:100CC000E108C8010197F1F71F910F91FF90089576
:100CD0009F92AF92BF92CF92DF92EF92FF920F93CB
:100CE0001F93DF93CF93CDB7DEB72A970FB6F89453
:100CF000DEBF0FBECDBF7B018C015E010894A11C3D
:100D0000B11C65019C2C9A18C801B7012AE030E09B
:100D100040E050E00E946412605DF60161936F0153
:100D2000C801B7012AE030E040E050E00E946412C0
:100D3000C901DA017C018D01E114F10401051105FD
:100D400009F7892D992787FD90958E010F5F1F4F19
:100D5000080F191FF92CF80180810E94EF05FA9401
:100D600001501040FFEFFF16B1F72A960FB6F89426
:100D7000DEBF0FBECDBFCF91DF911F910F91FF90CE
:100D8000EF90DF90CF90BF90AF909F9008951F930A
:100D9000CF93DF93EC0110E003C00E94EF051F5FCB
:100DA000FE01E10FF11D80818823B9F7DF91CF911A
:100DB0001F9108950F931F93DF93CF93CDB7DEB7A5
:100DC00060970FB6F894DEBF0FBECDBF90E08E01E6
:100DD0000F5F1F4FB8014AE050E00E94D812C801CF
:100DE0000E94C70660960FB6F894DEBF0FBECDBF57
:100DF000CF91DF911F910F910895FF920F931F9351
:100E0000F82E82E060E040E00E94E10882E061E0CC
:100E100040E00E94E10800ED17E0C8010197F1F7FA
:100E200082E067E041E00E94E108C8010197F1F724
:100E30004F2D4295417081E060E00E94E1084F2D06
:100E400042954695417081E061E00E94E1084F2D96
:100E5000429546954695417081E062E00E94E10826
:100E60004F2D441F4427441F81E063E00E94E108A6
:100E7000C8010197F1F782E067E040E00E94E108D5
:100E8000C8010197F1F782E067E041E00E94E108C4
:100E9000C8010197F1F74F2D417081E060E00E9499
:100EA000E1084F2D4695417081E061E00E94E10824
:100EB000F694F6944F2D417081E062E00E94E108C3
:100EC000F69481E0F82263E04F2D0E94E108C8010A
:100ED0000197F1F782E067E040E00E94E108C80175
:100EE0000197F1F71F910F91FF90089581E00E9403
:100EF000FD060895813051F0813028F0823049F0AC
:100F0000833079F40AC0862F805804C0862F80541D
:100F100001C0862F0E94FD060895862F805C0E94E6
:100F2000FD0608950F931F938A010E947A07C80156
:100F30000E94C7061F910F910895DF92EF92FF92D2
:100F40000F931F93CF93DF938C01F62EE42ED22EB6
:100F500081E080933601862F880F880F880F805C90
:100F60000E94FD06C0E0D0E0F801EC0FFD1F80817B
:100F70000E94EF052196C830D105B1F78E2D6D2D59
:100F80000E947A078F2D0E94EF0510923601DF91A3
:100F9000CF911F910F91FF90EF90DF90089582E025
:100FA00060E041E00E94060882E061E041E00E94CA
:100FB000060882E067E041E00E94060880E49CE9C0
:100FC0000197F1F781E060E041E00E94060881E0CE
:100FD00061E041E00E94060881E062E041E00E9499
:100FE000060881E063E041E00E94060883E30E9476
:100FF000FD0682E30E94FD0688E20E94FD068CE069
:101000000E94FD0681E00E94FD060895683008F008
:10101000C2C04423D1F58130A1F0813030F082305C
:10102000E1F0833009F0B7C024C02AB381E090E03A
:1010300002C0880F991F6A95E2F7809582238ABBC8
:10104000A8C027B381E090E002C0880F991F6A957D
:10105000E2F78095822387BB9CC024B381E090E0B7
:1010600002C0880F991F6A95E2F78095822384BB9E
:1010700090C021B381E090E002C0880F991F6A956B
:10108000E2F78095822381BB84C04130B1F5813085
:1010900099F0813030F08230D1F0833009F07BC09C
:1010A00021C02AB381E090E002C0880F991F6A95A1
:1010B000E2F7282B2ABB6DC027B381E090E002C085
:1010C000880F991F6A95E2F7282B27BB62C024B3CB
:1010D00081E090E002C0880F991F6A95E2F7282B03
:1010E00024BB57C021B381E090E002C0880F991F54
:1010F0006A95E2F7282B21BB4CC0423009F04BC067
:101100008130C1F0813030F0823021F1833009F03C
:1011100042C030C03AB381E090E002C0880F991F0E
:101120006A95E2F7282F209523232ABB2BB3822B25
:101130008BBB2FC037B381E090E002C0880F991FAE
:101140006A95E2F7282F2095232327BB28B3822B0B
:1011500088BB1FC034B381E090E002C0880F991FA4
:101160006A95E2F7282F2095232324BB25B3822BF1
:1011700085BB0FC031B381E090E002C0880F991F9A
:101180006A95E2F7282F2095232321BB22B3822BD7
:1011900082BB80E0089581E00895813051F0813074
:1011A00030F0823041F0833049F081E008956ABB2D
:1011B00003C067BB01C064BB80E0089561BB80E0F1
:1011C0000895683008F074C04423D1F58130A1F04F
:1011D000813030F08230E1F0833009F069C024C002
:1011E0002BB381E090E002C0880F991F6A95E2F767
:1011F000809582238BBB5AC028B381E090E002C067
:10120000880F991F6A95E2F78095822388BB4EC0AC
:1012100025B381E090E002C0880F991F6A95E2F73C
:101220008095822385BB42C022B381E090E002C05A
:10123000880F991F6A95E2F78095822382BB36C09A
:101240004130B1F5813091F0813028F08230C9F021
:10125000833071F521C02BB381E090E002C0880F8C
:10126000991F6A95E2F7282B2BBB20C028B381E099
:1012700090E002C0880F991F6A95E2F7282B28BBDF
:1012800015C025B381E090E002C0880F991F6A95D0
:10129000E2F7282B25BB0AC022B381E090E002C010
:1012A000880F991F6A95E2F7282B22BB80E00895EA
:1012B00081E0089583E060E041E00E94060883E059
:1012C00061E041E00E94060883E062E041E00E94A4
:1012D000060883E063E041E00E94060883E066E0E0
:1012E00041E00E94060883E067E041E00E940608B2
:1012F00083E060E040E00E94E10883E061E041E0DB
:101300000E94E10883E062E040E00E94E10883E09F
:1013100063E040E00E94E10883E066E040E00E9474
:10132000E10883E067E040E00E94E1080895813031
:1013300051F0813030F0823041F0833049F081E06B
:1013400008956BBB03C068BB01C065BB80E0089516
:1013500062BB80E00895813099F0813030F08230B6
:10136000D1F0833021F181E008952BB381E090E04A
:1013700002C0880F991F6A95E2F728272BBB15C07A
:1013800028B381E090E002C0880F991F6A95E2F7C8
:10139000282728BB0AC025B381E090E002C0880F4F
:1013A000991F6A95E2F7282725BB80E0089522B3AC
:1013B00081E090E002C0880F991F6A95E2F7282724
:1013C00022BB80E00895FA0141155105E1F0683033
:1013D000D0F4813049F0813028F0823039F0833008
:1013E00091F406C089B305C086B303C083B301C0BE
:1013F00080B390E002C0959587956A95E2F7817079
:10140000808380E0089581E00895FB0161157105F6
:1014100099F0813049F0813028F0823039F0833002
:1014200059F406C089B305C086B303C083B301C0B5
:1014300080B3808380E0089581E008959FBB8EBBD8
:101440006DBBE29AE19AE199FECF80E008959FBBDF
:101450008EBBE09A8DB308958FB780688FBF0895D3
:101460008FB78F778FBF089550E040E060E170E064
:1014700001C0542FCB01052E02C0880F991F0A947A
:10148000E2F78ABB80958BBB20E030E089B390E027
:10149000022E02C0959587950A94E2F780FD4BC015
:1014A000842F8F5F220F331F220F331F820F88304C
:1014B00081F1893080F4843021F1853038F4823034
:1014C000F1F08330B0F58130A9F517C08630E9F02E
:1014D0008730E8F418C08C3021F18D3028F48A3040
:1014E000E1F08B30E0F417C08E30E9F08E3008F177
:1014F0008F30D9F08031F1F41AC081E2089580E490
:10150000089584E208958AE2089584E3089587E3C4
:10151000089581E3089580E3089585E3089588E3BD
:10152000089582E3089586E3089589E3089583E3A7
:10153000089583E208952F5F3F4F2430310509F06D
:10154000A5CF452F4F5F443008F493CF50E040E0E3
:1015500091CF80E060E041E00E94060880E061E019
:1015600041E00E94060880E062E041E00E94060837
:1015700080E063E041E00E94060880E060E041E036
:101580000E94E10880E061E041E00E94E10880E023
:1015900062E041E00E94E10880E063E041E00E94F7
:1015A000E10880E064E042E00E94060880E065E037
:1015B00042E00E94060880E066E042E00E940608E1
:1015C00080E067E042E00E94060808952F923F9273
:1015D0004F925F926F927F928F929F92AF92BF9243
:1015E000CF92DF92EF92FF920F931F93DF93CF93EF
:1015F000CDB7DEB71B012C0139014A01A6019501C7
:101600006D897E898F89988D62197309840995097E
:101610002E193F09400B510B0E941E1262187308CD
:1016200084089508A40193010E94861259016A0159
:10163000AE0CBF1CC01ED11EB501C601CF91DF91FB
:101640001F910F91FF90EF90DF90CF90BF90AF90E0
:101650009F908F907F906F905F904F903F902F90D2
:1016600008958FB9779BFECF0895779BFECF8FB1FA
:1016700008958FB9779BFECF8FB108956F9A089523
:101680006F980895909338018093370108951F92C1
:101690000F920FB60F9211242F933F934F935F93A6
:1016A0006F937F938F939F93AF93BF93EF93FF932A
:1016B000E0913701F09138010995FF91EF91BF91C9
:1016C000AF919F918F917F916F915F914F913F91DA
:1016D0002F910F900FBE0F901F90189581E064E03E
:1016E00040E00E94060881E065E040E00E940608B4
:1016F00081E066E041E00E94060881E067E040E0AA
:101700000E9406086C986E9A089581E065E041E0B9
:101710000E94060881E066E040E00E94060881E041
:1017200067E041E00E94060881E064E041E00E9439
:1017300006086C9A689A699870986E9A0895AF92A4
:10174000BF92CF92DF92EF92FF920F931F9300D040
:1017500000D0EDB7FEB7618372838383948360E02A
:1017600070E080E090E024EB30E040E050E0FEEEFE
:10177000EF2EF2E0FF2E012D112DE4ECAE2EE9E06C
:10178000BE2EC12CD12C0E94E60ADC01CB010F90A9
:101790000F900F900F900E94CF0E1F910F91FF900E
:1017A000EF90DF90CF90BF90AF900895AF92BF922F
:1017B000CF92DF92EF92FF920F931F9300D000D051
:1017C000EDB7FEB7618372838383948360E070E03A
:1017D00080E090E024EB30E040E050E0BEEEEB2E05
:1017E000B2E0FB2E012D112DA4ECAA2EA9E0BA2EF9
:1017F000C12CD12C0E94E60ADC01CB010F900F9086
:101800000F900F900E94CC0E1F910F91FF90EF90C0
:10181000DF90CF90BF90AF90089583E064E041E007
:101820000E9406088EE062E042E00E941F0D8FE1F8
:101830009EE40E94D20E089583E065E041E00E949C
:10184000060883E064E041E00E9406088EE062E062
:1018500042E00E941F0D80E29EE40E94D20E089595
:1018600083B7806483BF83B7877F83BF83B78F7E4F
:1018700083BF83B7806283BF83B7816083BF83B731
:101880008D7F83BF83B7846083BF80E090E0A0E852
:10189000B4E480934A0190934B01A0934C01B09320
:1018A0004D010895089520E030E84FEF53E40E9481
:1018B0001F0220E030E048EC52E40E9419030E942D
:1018C00049006CBF089585B5806485BD85B5877F67
:1018D00085BD85B58F7E85BD85B5806285BD85B5A5
:1018E000816085BD85B58D7F85BD85B5846085BDED
:1018F00080E090E0A0E8B4E480935201909353011B
:10190000A0935401B09355010895089520E030E864
:101910004FEF53E40E941F0220E030E048EC52E415
:101920000E9419030E94490063BD08951F920F92FF
:101930000FB60F9211242F933F934F935F936F93A2
:101940007F938F939F93AF93BF93EF93FF93809178
:101950003B0190913C01019690933C0180933B01A7
:10196000A0E0B0E020914E0130914F014091500134
:1019700050915101281739074A075B0761F480919C
:101980005E0184BDE0913D01F0913E010995109208
:101990003C0110923B01FF91EF91BF91AF919F915C
:1019A0008F917F916F915F914F913F912F910F9008
:1019B0000FBE0F901F9018951F920F920FB60F92A7
:1019C00011242F933F934F935F936F937F938F9344
:1019D0009F93AF93BF93EF93FF93809139019091C1
:1019E0003A01019690933A0180933901A0E0B0E06A
:1019F00020915A0130915B0140915C0150915D0151
:101A0000281739074A075B0749F4E0913D01F09137
:101A10003E01099510923A0110923901FF91EF9120
:101A2000BF91AF919F918F917F916F915F914F91F6
:101A30003F912F910F900FBE0F901F901895982FE8
:101A4000873009F48AC0883088F4833009F44DC0A7
:101A5000843028F48130A9F18230C8F51DC085306A
:101A600009F465C0863008F068C048C08B3009F4BE
:101A70008FC08C3038F4893009F481C08A3008F086
:101A800084C07AC08E3009F49EC08F3009F49EC0A5
:101A90008C3009F0A7C085C08FB58E7F8FBD8FB504
:101AA0008D7F8FBD8EB5877F8EBD8EB58F7E8EBDAF
:101AB00089B7846089BF89B7877F89BF89B78F7EDF
:101AC00031C08FB581608FBD8FB58D7F13C08FB54D
:101AD0008E7F8FBD8FB582608FBD8EB5877F8EBDA7
:101AE0008EB58F7E8EBD82E035C08FB581608FBD93
:101AF0008FB582608FBD8EB5877F37C08FB58E7FE3
:101B00008FBD8FB58D7F8FBD8EB588608EBD8EB534
:101B10008F7E8EBD89B78B7F89BF89B7877F89BF4D
:101B200089B7806189BF89B78F7D89BF5BC08FB559
:101B300081608FBD8FB58D7F15C08FB58E7F8FBDB6
:101B40008FB582608FBD8EB588608EBD8EB58F7E5D
:101B50008EBD86E08093410145C08FB581608FBD09
:101B60008FB582608FBD8EB588608EBD8EB58F7E3D
:101B70008EBD9093410136C08FB58E7F02C08FB568
:101B800081608FBD8FB58D7F08C08FB58E7F02C0FD
:101B90008FB581608FBD8FB582608FBD8EB5877F19
:101BA0001DC08FB58E7F8FBD8FB582608FBD8EB506
:101BB00088608EBD8EB58F7E8EBD89B78B7F89BFC5
:101BC00089B78860ACCF8FB58E7F02C08FB581603A
:101BD0008FBD8FB582608FBD8EB588608EBD8EB58E
:101BE00080618EBD613051F0613028F0623061F06B
:101BF000633099F40CC08FB58F7B02C08FB58064C1
:101C00008FBD8FB58F7708C08FB58F7B02C08FB522
:101C100080648FBD8FB580688FBD413051F04130F9
:101C200028F0423061F0433099F40CC08FB58F7EBC
:101C300002C08FB580618FBD8FB58F7D08C08FB515
:101C40008F7E02C08FB580618FBD8FB580628FBDE2
:101C50008EB58E7F8EBD8EB582608EBD8EB58B7F2C
:101C60008EBD0895982F80914101833029F18430F1
:101C700030F4813059F0823009F040C00CC0863019
:101C800011F1873049F18530C9F51BC0292F30E0AB
:101C90008EEF91E004C0292F30E08EEF93E0AC018D
:101CA000249FC001259F900D349F900D112464E660
:101CB00070E00E943D120DC0292F30E08EEF97E0BA
:101CC000EECF80E002C080E0990F64E670E00E94F1
:101CD00051127BBD6ABD0895292F30E08FEF93E04C
:101CE000AC01249FC001259F900D349F900D1124BD
:101CF00064E670E00E943D127BBD6ABD0895982F96
:101D000080914101833029F1843030F4813059F0E1
:101D1000823009F040C00CC0863011F1873049F1A3
:101D20008530C9F51BC0292F30E08EEF91E004C04B
:101D3000292F30E08EEF93E0AC01249FC001259F56
:101D4000900D349F900D112464E670E00E943D12C6
:101D50000DC0292F30E08EEF97E0EECF80E002C07B
:101D600080E0990F64E670E00E94511279BD68BD71
:101D70000895292F30E08FEF93E0AC01249FC0013C
:101D8000259F900D349F900D112464E670E00E9411
:101D90003D1279BD68BD08959BBD8ABD089599BD6A
:101DA00088BD089597BD86BD08958EB580648EBDAB
:101DB00089B7806289BF8EB58E7F8EBD8EB58260F9
:101DC0008EBD8EB58B7F8EBD0895813021F48EB58A
:101DD00080648EBD0895882319F48EB58F7B8EBDE7
:101DE000089526B537B5C9010895909340018093B1
:101DF0003F0108951DBC1CBC08951F920F920FB6A1
:101E00000F9211242F933F934F935F936F937F9380
:101E10008F939F93AF93BF93EF93FF93E0913F0115
:101E2000F0914001309709F00995FF91EF91BF9132
:101E3000AF919F918F917F916F915F914F913F9162
:101E40002F910F900FBE0F901F9018950E94350B89
:101E5000809362018A35B9F18B3530F4883459F0BA
:101E6000893509F042C036C08937D1F18A3771F11E
:101E70008836D9F514C060E070E080E090E00E9400
:101E8000D60B64EB70E080E090E00E949F0B83E053
:101E900060E041E00E94E10883E061E019C06AE58A
:101EA00070E080E090E00E94D60B6AE570E080E090
:101EB00090E00E949F0B83E060E040E00E94E10818
:101EC00083E061E009C083E067E006C083E067E08B
:101ED00040E003C083E066E041E00E94E10808952D
:101EE00083E066E040E00E94E10808956F927F92EF
:101EF0008F929F92BF92CF92DF92EF92FF920F93B9
:101F00001F93DF93CF9300D000D0CDB7DEB70E94F0
:101F10005A090E946E0B0E943E0B86E29FE00E94CF
:101F2000420B0E941C0C6AE570E080E090E00E9489
:101F3000D60B6AE570E080E090E00E949F0B0E9463
:101F4000CF070E94A90A0E942C0A80E060E00E944C
:101F50007A0780E290E00E94270A8F3FA9F580E689
:101F600090E00E94C70601E210E068ECC62ED12C7A
:101F70005FEDE52EE00E0E94340AF82E8FEFF81682
:101F8000D1F381E06E2D0E947A078F2D0E94EF051C
:101F900088E893E1F6013197F1F70197D9F781E0ED
:101FA0006E2D0E947A078AE20E94EF05C8016F2D0C
:101FB0000E941E0A0F5F1F4F05321105C9F680E20D
:101FC00090E060E00E941E0A0E94760780E062E0D6
:101FD0000E947A078EE690E00E94C70680E197E2B1
:101FE00028EC30E0F9013197F1F70197D9F743E098
:101FF000B42E38ECC32ED12C4E010894811C911CB8
:1020000025E0622E712C6C0E7D1E0BC2F6013197FD
:10201000F1F70197D9F70E9476078BE790E00E94CD
:10202000C70681E060E00E947A0788E890E00E949D
:10203000C7060E94340A8F3FE1F328E833E1F60136
:102040003197F1F721503040D1F7813309F026C1A3
:102050000E94760786E990E00E94C70674010E2D63
:10206000081981E0602F0E947A078EE00E94FD0629
:1020700088EE93E0F6013197F1F70197D9F78CE0FC
:102080000E94FD060E94340A182FF70180838F3FBB
:1020900041F381E0602F0E947A07812F0E94EF05B3
:1020A00088E893E1F6013197F1F70197D9F781E0DC
:1020B000602F0E947A078AE20E94EF050894E11CD3
:1020C000F11CE614F70459F681E290E00E94270A19
:1020D0001981811709F054C082E290E00E94270A1A
:1020E0009A81891709F04CC083E290E00E94270A88
:1020F0009B81891709F044C084E290E00E94270A7E
:102100009C81891709F03CC00E94760780E062E05C
:102110000E947A0786EA90E00E94C70683E060E0AA
:1021200041E00E94E10883E061E040E00E94E108B4
:1021300060E070E080E090E00E94D60B60E070E02C
:1021400080E090E00E949F0B80E49CE9F6013197CB
:10215000F1F70197D9F76AE570E080E090E00E941E
:10216000D60B6AE570E080E090E00E949F0B83E070
:1021700060E040E00E94E10883E061E041E03FC0B0
:1021800081E290E00E94270A9C81891709F03CC0F7
:1021900082E290E00E94270A9B818917A9F583E2D9
:1021A00090E00E94270A9A81891771F584E290E0F5
:1021B0000E94270A811741F50E94760780E061E0BE
:1021C0000E947A0783EB90E00E94C70683E061E0FB
:1021D00040E00E94E10883E062E041E00E94E10803
:1021E00080E593ECF6013197F1F70197D9F783E099
:1021F00061E041E00E94E10883E062E040E00E948B
:10220000E1080E9476070DC1BA9419F10E94760781
:1022100080E061E00E947A0782EC90E00E94C706AD
:1022200080E197E2F6013197F1F70197D9F70E9423
:10223000760781ED90E00E94C7068B2D805D0E949D
:10224000EF0580E197E2F6013197F1F70197D9F7B1
:10225000E8C088E893E1F6013197F1F70197D9F7E3
:102260000E94760780E062E00E947A078DED90E0A0
:102270000E94C70683E063E041E00E94E1088FEF1F
:102280009FEFF6013197F1F70197D9F783E063E00B
:1022900040E00E94E10893E0B92EC3C0823309F008
:1022A000B3C00E9476078BEE90E00E94C7067401CF
:1022B0000E2D081981E0602F0E947A078EE00E949F
:1022C000FD0688EE93E0F6013197F1F70197D9F713
:1022D0008CE00E94FD060E94340A182FF7018083CB
:1022E0008F3F41F381E0602F0E947A07812F0E9487
:1022F000EF0588E893E1F6013197F1F70197D9F7F7
:1023000081E0602F0E947A078AE20E94EF0508941C
:10231000E11CF11CE614F70459F681E290E00E94FA
:10232000270A9981891709F05DC082E290E00E9436
:10233000270A9A81891709F055C083E290E00E942C
:10234000270A9B81891709F04DC084E290E00E9422
:10235000270A9C81891709F045C00E94760789EFFA
:1023600090E00E94C70681E060E00E947A0785E065
:1023700091E00E94C70601E210E00E94340AF82EA4
:10238000FFEF8F17D1F389EEE82EE00E80E06E2D7F
:102390000E947A078EE00E94FD0688EE93E0F60127
:1023A0003197F1F70197D9F78CE00E94FD068F2D48
:1023B0000E94EF0588E893E1F6013197F1F7019764
:1023C000D9F780E06E2D0E947A078AE20E94EF051D
:1023D000C8016F2D0E941E0A0F5F1F4F05321105A5
:1023E00061F61FC00E94760780E061E00E947A07D4
:1023F00082EC90E00E94C70688E893E1F6013197ED
:10240000F1F70197D9F7FDCE0E94760782E191E0BE
:102410000E94C70680E197E2F6013197F1F7019734
:10242000D9F70E94760780E062E00E947A0780E296
:1024300091E00E94C70688EE93E0E8CD629FD0014C
:10244000739FF001829FE00DF11D649FE00DF11D6F
:10245000929FF00D839FF00D749FF00D659FF00D1E
:102460009927729FB00DE11DF91F639FB00DE11D0B
:10247000F91FBD01CF0111240895AA1BBB1B51E117
:1024800007C0AA1FBB1FA617B70710F0A61BB70BE4
:10249000881F991F5A95A9F780959095BC01CD0189
:1024A000089597FB092E07260AD077FD04D0E5DFB3
:1024B00006D000201AF4709561957F4F0895F6F7C5
:1024C000909581959F4F0895A1E21A2EAA1BBB1BE0
:1024D000FD010DC0AA1FBB1FEE1FFF1FA217B307F0
:1024E000E407F50720F0A21BB30BE40BF50B661F06
:1024F000771F881F991F1A9469F7609570958095CA
:1025000090959B01AC01BD01CF01089597FB092E69
:1025100005260ED057FD04D0D7DF0AD0001C38F4B2
:1025200050954095309521953F4F4F4F5F4F0895FF
:10253000F6F790958095709561957F4F8F4F9F4FDF
:1025400008952F923F924F925F926F927F928F9257
:102550009F92AF92BF92CF92DF92EF92FF920F9332
:102560001F93CF93DF93CDB7DEB7CA1BDB0B0FB63C
:10257000F894DEBF0FBECDBF09942A8839884888F9
:102580005F846E847D848C849B84AA84B984C8848F
:10259000DF80EE80FD800C811B81AA81B981CE0F86
:1025A000D11D0FB6F894DEBF0FBECDBFED0108956B
:1025B000FB019F01E8944230C4F04532B4F44A3044
:1025C00029F497FB1EF4909581959F4F642F7727F0
:1025D0000E943D12805D8A330CF0895D8193CB01AE
:1025E0000097A1F716F45DE251931082C9010C9493
:1025F000F912DC01FC01672F71917723E1F7329723
:1026000004C07C916D9370836291AE17BF07C8F3CD
:062610000895F894FFCFCD
:102616005365742050617373776F72643A0057651F
:102626006C636F6D6520486F6D6500312D456E7466
:102636006572205061737300322D4368616E676561
:10264600205061737300456E746572205061737318
:10265600776F72643A0057656C636F6D65204261EF
:10266600636B0043616C6C696E6720506F6C6963C5
:10267600650057726F6E672050617373776F72646F
:10268600005472696573204C6566743A004C4F4776
:10269600494E20424C4F434B4544004F6C642050FA
:1026A600617373776F72643A004E65772050617379
:1026B60073203A20004A757374204E756D626572F8
:1026C6007300496E76616C696420496E707574009A
:1026D60043686F73652061204D6F646500000000DC
:0626E600000000000000EE
:00000001FF
